:100A98003F065B4F666D7D077F6F777C395E7971A6
:100AA8000040761E7038375C733E783D6750376E6D
:100AB800BF86DBCFE6EDFD87FFEF4641414153534B
:070AC8005353535341414118
:100A15000242000008451010101010101010C102FD
:100A2500013F0001440001220001230001240001CF
:100A35002500012637012700012800012900012A88
:010A45003779
:1005F500E4F54D754EFFF54FF550FDFF120BD37F1A
:10060500FF120D1F120D0A120A59300405C20412F9
:100615000B03300025C2001204D78F4EE54EB40CF3
:1006250019E55114600C14600E2402700D7551010A
:1006350080087551028003E4F551E551703FE50CE2
:10064500C4540FF545E50C540FF546E50E20E005BD
:100655007547118003754710E50DC4540FF548E53E
:100665000D540FF549E50E20E005754A1180037517
:100675004A10E50EC4540FF54BE50E804FE551B415
:100685000119754505754611754711754811754967
:1006950011754A11754B11E50B8031E55164026006
:1006A5000302060F754502F546E508C4540FF547E4
:1006B500E508540FF548E509C4540FF549E5095413
:1006C5000FF54AE50AC4540FF54BE50A540FF54CEE
:0306D50002060F0B
:100BD300E4FEEF60027E40ED6003430610C2AF8E79
:100BE30080E5A0541F44A0F5A08E8053A01FD2AF70
:010BF30022DF
:100CA600E4FEEF60027E40ED6003430610C2AF90A3
:090CB600A000EEF053A01FD2AF24
:010CBF002212
:100BF400EF1FAA0670011E4A60147C027D80D3EDAB
:0E0C04009400EC940040E9ED1D70F31C80F0AC
:010C120022BF
:100D1F00C2AF8F80E5A0541F4480F5A08F8053A0F1
:040D2F001FD2AF22FE
:0D0D7900C2AF908000EFF053A01FD2AF2258
:100D0A00538EBF53890F758B18758DFCC28FD28E87
:050D1A00D2ABD2AF22B4
:03001B000206D802
:1006D800C0E0C0F0C083C082C0D075D000C000C0E8
:1006E80001C002C003C004C005C006C0070543E539
:1006F8004370020542AE42FFE4FCFD7B607AEAF9F2
:10070800F8C31203467004F542F543AE42AF437C8A
:10071800007D0A1202E3ED4C7002D200AE42AF43F4
:100728007C007D321202E3ED4C7002D201AE42AF82
:10073800437C007D641202E3ED4C7002D203AE42AA
:10074800AF437C007DC81202E3ED4C7002D204AEC8
:1007580042AF437C007DFA1202E3ED4C7002D205F1
:10076800AE42AF437C037DE81202E3ED4C7002D247
:1007780006120935D3E51C944CE51B941D4005125F
:1007880008BC80F0120003D007D006D005D004D0F2
:1007980003D002D001D000D0D0D082D083D0F0D006
:0207A800E0323D
:100935007580FFE5A0541F44E0F5A053A01FE4F522
:1009450080E5A0541F44C0F5A0AF227401A8070894
:100955008002C333D8FCF58053A01F7580FFE5A046
:10096500541F44E0F5A074452522F8E6900A9893B3
:10097500F4F58053A01F0522E522C394084003E443
:02098500F52259
:01098700224D
:0D0D8600C2AF908000E4F053A01FD2AF2256
:1008360043B00FE5B0540FFF640F6066E523C39421
:10084600C850020523E523C3940550037FFF22E524
:100856002364057037752401752637EF24F9601A6D
:1008660024FC601124FE6008147014752507801995
:100876007525068014752505800F752504800A7573
:1008860025FFE4F524F526F523AF2522E526600CA1
:10089600D5260C752637E525240AFF227526377FCF
:1008A600FF22E4F523E524B40109E4F524E5252433
:0508B60014FF227FFF8A
:0108BB00221A
:1004D70075B00FC2C2C2C4E5B0540FFF640F7003FA
:1004E7000205E1E527C394C850020527E527C39411
:1004F7000550037FFF22E527640560030205CB75DE
:100507002801752A37E5B0540FFF75B0F0D2C2D273
:10051700C4E5B054F0FE30C20543064080035306DD
:10052700BF30C405430680800353067FEE4207EFC2
:1005370012035C056E7705737B05787D057D7E0567
:1005470082B70587BB058CBD0591BE0596D7059B70
:10055700DB05A0DD05A5DE05AAE705AFEB05B4EDD4
:1005670005B9EE000005BE7529048055752905807B
:1005770050752906804B75290780467529088041E3
:10058700752909803C75290A803775290B803275D2
:10059700290C802D75290D802875290E8023752932
:1005A7000F801E752910801975291180147529125D
:1005B700800F752913800A7529FFE4F528F52AF5B8
:1005C70027AF2922E52A600CD52A0C752A37E52999
:1005D7002414FF22752A377FFF22E4F527E528B484
:0D05E7000109E4F528E5292428FF227FFF03
:0105F40022E4
:10000300759850438E01438E0475D73C75D6F643DD
:070013008E10D2ACD2AF2227
:030023000209D0FF
:0B09D000C0E0C0D075D000C000C00720
:1009DB0030982EC298742B253FF8A699742B253F7F
:1009EB00F8E6F599053FE53FD3941340117F147852
:1009FB002BE4F608DFFC753F00754400800375445B
:010A0B0005E5
:090A0C00D007D000D0D0D0E032B8
:10038200E4FFC2900FBF08FA000000000000000066
:10039200000000000000000000000000000000005B
:1003A200000000000000000000000000000000004B
:1003B200000000000000000000000000000000003B
:1003C200000000000000000000000000000000002B
:1003D200000000000000000000000000000000001B
:1003E200000000000000000000000000000000000B
:1003F20000000000000000000000000000000000FB
:1004020000000000000000000000000000000000EA
:1004120000000000000000000000000000000000DA
:1004220000000000000000000000000000D2900068
:1004320000000000000000000000000000000000BA
:1004420000000000000000000000000000000000AA
:10045200000000000000000000000000000000009A
:10046200000000000000000000000000000000008A
:10047200000000000000000000000000000000007A
:10048200000000000000000000000000000000006A
:10049200000000000000000000000000000000005A
:1004A200000000000000000000000000000000004A
:1004B200000000000000000000000000000000003A
:1004C200000000000000000000000000000000002A
:0404D2000000000026
:0104D6002203
:100D5A00538E7F5389F0E4F58AF58CC28DD28C22AA
:10098800120382120D5A309107E58CC3943340F656
:10099800C28CE58CC3943340077540037541E72248
:1009A800AF8CEFFEAD8A7C00E42DFFEC3EFEAD0778
:1009B800FCE41202297B967A43798B783C12011E5B
:0709C8001202628E408F4114
:0109CF002205
:100A4600070F23121404085300070823121404087E
:020A560053004B
:100D4700E4FEC297EF1392A3EFC313FFD2970EBE31
:020D570008F0A2
:010D59002277
:100D3300C29300C29700D29300120D47AF05120D64
:040D430047C29322EE
:100ACF00E4FDC29300C29700D29300120D47E4FFDA
:100ADF00C297EDC313FD30A303430580D2970FBF19
:100AEF0008EEC29300C29700D29700C2A300D2A310
:030AFF0000AF0540
:010B020022D0
:100A5900E4FD7F8E120D33AD0F7F8C120D33AD1077
:100A69007F88120D33AD117F86120D33AD127F8A47
:100A7900120D33AD137F84120D33AD147F82120D25
:0F0A890033AD157F80120D337D807F8E020D33CC
:100B03007F8D120ACF8F087F89120ACF8F097F87C3
:100B1300120ACF8F0A7F8B120ACF8F0B7F85120A9F
:100B2300CF8F0C7F83120ACF8F0D7F81120ACF8F55
:020B33000E2290
:040D9300D2A07F0566
:080D970000AE071FEE70F92207
:0F0D6A00D2A1120D93C2A17F05120D97C2A02234
:0C0D9F00C2A1120D93D2A17F05020D9796
:070C3200120C6EAD07D207A2
:100C3900C2A0A20792A17F05120D97120D93C2A01F
:070C4900D2A17F05020D9707
:0A0C8B00AB07120D6A7F90120B35C3
:100C9500120D93A2A19208C2A07F05120D97A2087A
:010CA500222C
:020B3500AD070A
:100B3700E4FCC2A07F05120D97ED30E704D2A18037
:100B470002C2A17F05120D97D2A0ED25E0FD7F051A
:090B5700120D970CBC08DBC2A0D2
:010B60002272
:100C6E00E4FC120D93ED25E0FD30A103430501C216
:0C0C7E00A07F05120D970CBC08E8AF0524
:010C8A002247
:100BB100AB05AA07120D6A7FA0120B35120C95AF77
:100BC10002120B35120C95AF03120B35120C950264
:020BD1000D9F76
:020B6100AB07E0
:100B6300120D6A7FA0120B35120C95AF03120B35D1
:100B7300120C95120D6A7FA1120B35120C95120CF3
:060B830032120D9FAF05C8
:010B89002249
:100CF400120C8B7F40120B35120C95AF03120B357F
:060D0400120C95020D9F88
:100C1300120C8BAF03120B35120C95120D6A7F91D8
:0E0C2300120B35120C95120C32120D9FAF05FC
:010C310022A0
:040CC0007F057E002E
:100CC400EF1FAA0670011E4A600BE4FDEDC3940CED
:050CD40050EE0D80F759
:010CD90022F8
:020C5000A907F2
:100C5200E4FBC294E9139294120CC0D294E9C31338
:0C0C6200F90BBB08ED7F057E00020CC4FE
:100CDA00E4FBC294ECC313FCD29430940343048023
:090CEA00120CC00BBB08EBAF04B7
:010CF30022DE
:100B8A00C209D2947F0C7E00120CC4C2947F507E9C
:100B9A0000120CC4D2947F0A7E00120CC4A2949252
:060BAA0009120CC0A209B3
:010BB0002222
:1008BC00120B8A7FCC120C507F44120C507F147E8A
:1008CC0000120CC4120B8A7FCC120C507FBE120C7F
:1008DC0050120CDAA907120CDAAD07ED7F00FEE915
:1008EC002FFFE43EFEED30E712751A01EFF4FFEE38
:1008FC00F4FEEF2401FFE43EFE8003E4F51AAD079D
:10090C00AC06E4120229E4FBFA79C8784012011E05
:10091C00E4FBFAF9783F12002D8F198E188D178C85
:08092C00161202628E1B8F1CE3
:0109340022A0
:100026000202CEE86480F8E933E83360110460F038
:10003600ED33EC337009E8FCE9FDEAFEEBFF220440
:1000460060DED3EB9FEA9EE99DE8C2E78CF0C2F73B
:1000560095F0400CE8CCF8E9CDF9EACEFAEBCFFB07
:1000660012029985D0F05804700320D5B3E80470C5
:10007600075002B2D50202D892D5EC0460F7E4CC60
:10008600C0E0C398F8603B94186008400DD0E0FBD0
:100096000202B0E4FBFAC9FC8028E830E406E4C9B1
:1000A600FBE4CAFCE830E305E4C9CACBFCE8540724
:1000B6006010F8C3E913F9EA13FAEB13FBEC13FC2F
:1000C600D8F130F52FC3E49CFCEF9BFFEE9AFEEDD2
:1000D60099FDD0E0FBEF4E4D4C701222DB0302027D
:1000E600D5EC2CFCEF33FFEE33FEED33FDED30E7C0
:1000F600EB0202B0EF2BFFEE3AFEED39FDD0E0FB4E
:1001060050130BBB00030202D8ED13FDEE13FEEFF6
:0801160013FFEC13FC0202B020
:10011E00EC4D6011E8497017ED33EC3304600DE4DB
:10012E00FCFFFEFD22E933E8330470F80202CE1222
:10013E00029958046009E4CC248150062850090223
:10014E0002D82840030202D5C0E0EB4A7044B980C1
:10015E0006D0E0FB0202C4EF4E701CBD8008EBFF20
:10016E00EAFEE9FD80EBE98DF0A4FEE5F002020760
:10017E00E9CDF9EAFEEBFFEF89F0A4FCE5F0CE89BC
:10018E00F0A42EFFE435F0CD89F0A42DFEE435F079
:10019E008067EF4E7005BD80D780C3EF8BF0A4ACA7
:1001AE00F0EE8BF0A42CFCE435F0F8EF8AF0A42CE2
:1001BE00E5F038FCE433CB8DF0A42CFCE5F03BF8F5
:1001CE00EE8AF0A42CFCE5F038F8E433CF89F0A4E5
:1001DE002CFCE5F038CF3400CE89F0A42FFFE5F0EB
:1001EE003EFEE433C98DF0A42EFEE5F039CD8AF043
:1001FE00A42FFFE5F03EFEE43DFD33D0E0FB5007BB
:10020E000BBB000F0202D8EC2CFCEF33FFEE33FEDB
:06021E00ED33FD0202B009
:1002240075F020800E75F010800575F0087D007E55
:10023400007F003392D530D503120338EC334010DD
:10024400EF33FFEE33FEED33FDEC33FCD5F0ED225E
:0E025400E5F0247EA2D513CC92E7CDCEFF229A
:10026200EDD2E7CD33EC3392D524814006E4FFFE94
:10027200FDFC22FCE4CFCECDCC24E0501174FF80F3
:10028200EDC3CC13CCCD13CDCE13CECF13CF047090
:07029200F030D5DE02033855
:10029900E9D2E7C933E833F892D5EDD2E7CD33ECAB
:0702A90033FC5002B2D52224
:1002B000EC30E7100FBF000C0EBE00080DBD0004AF
:1002C0000BEB6014A2D5EB13FCED92E7FD2274FF5B
:1002D000FCFDFEFF22E480F8A2D574FF13FC7D80B4
:0302E000E480EFC8
:030000000207AA4A
:0C07AA00787FE4F6D8FD7581510207F15C
:1002E300BC000BBE0029EF8DF084FFADF022E4CCFF
:1002F300F875F008EF2FFFEE33FEEC33FCEE9DECC8
:10030300984005FCEE9DFE0FD5F0E9E4CEFD22ED0D
:10031300F8F5F0EE8420D21CFEADF075F008EF2F57
:10032300FFED33FD4007985006D5F0F222C398FD48
:050333000FD5F0EA22E5
:0E033800C3E49FFFE49EFEE49DFDE49CFC22D6
:10034600EB9FF5F0EA9E42F0E99D42F0EC6480C82E
:0603560064809845F022CE
:10035C00D083D082F8E4937012740193700DA3A330
:10036C0093F8740193F5828883E473740293686044
:06037C00EFA3A3A380DF44
:1007B6000205F5E493A3F8E493A34003F68001F25F
:1007C60008DFF48029E493A3F85407240CC8C33344
:1007D600C4540F4420C8834004F456800146F6DF13
:1007E600E4800B0102040810204080900A15E47E84
:1007F600019360BCA3FF543F30E509541FFEE49308
:10080600A360010ECF54C025E060A840B8E493A3CE
:10081600FAE493A3F8E493A3C8C582C8CAC583CAF9
:10082600F0A3C8C582C8CAC583CADFE9DEE780BEB1
:010A5800009D
:00000001FF
