:10000300E4F508FDFF120032AF087401A807088069
:1000130002C333D8FCF4FF12008C7F587E02120017
:0F002300530508E508C3940840DEE4F50880D9CA
:10003200E4FEEF60027E40ED6003430610C2AF8E25
:1000420080E5A0541F44A0F5A08E8053A01FD2AF1C
:01005200228B
:10007200E4FEEF60027E40ED6003430610C2AF90E3
:09008200A000EEF053A01FD2AF64
:01008B002252
:10005300EF1FAA0670011E4A60147C027D80D3ED57
:0E0063009400EC940040E9ED1D70F31C80F059
:01007100226C
:10008C00C2AF8F80E5A0541F4480F5A08F8053A091
:04009C001FD2AF229E
:0D00A000C2AF908000EFF053A01FD2AF223E
:030000000200AD4E
:0C00AD00787FE4F6D8FD7581080200039E
:00000001FF
