:1004D2003F065B4F666D7D077F6F777C395E797172
:1004E2000040761E7038375C733E783D6750376E39
:0B04F200BF86DBCFE6EDFD87FFEF4685
:1004FD000211000008131010101010101010010838
:10050D0000010900010A00010B00010C37010D006B
:09051D00010E00010F000110376E
:10039E00E4F51B751CFFF51DF51EFDFF1205997F7B
:1003AE00FF1206B51206A03003FDC2037F0112052F
:1003BE00D97F011205D97F011205D98F1DE51D7553
:1003CE00F06484F513E51D75F06484E5F075F00AAC
:1003DE0084F514E51D75F00A8485F0157F0312056A
:1003EE00D97F031205D97F031205D98F1EE51E751D
:1003FE00F06484F518E51E75F06484E5F075F00A76
:10040E0084F519E51E75F00A8485F01A1200038032
:01041E009647
:10059900E4FEEF60027E40ED6003430610C2AF8EB9
:1005A90080E5A0541F44A0F5A08E8053A01FD2AFB0
:0105B900221F
:10066C00E4FEEF60027E40ED6003430610C2AF90E3
:09067C00A000EEF053A01FD2AF64
:010685002252
:1005BA00EF1FAA0670011E4A60147C027D80D3EDEB
:0E05CA009400EC940040E9ED1D70F31C80F0ED
:0105D8002200
:1006B500C2AF8F80E5A0541F4480F5A08F8053A062
:0406C5001FD2AF226F
:0D070E00C2AF908000EFF053A01FD2AF22C9
:1006A000538EBF53890F758B18758DFCC28FD28EF8
:0506B000D2ABD2AF2225
:03001B0002013CA3
:10013C00C0E0C0F0C083C082C0D075D000C000C089
:10014C0001C002C003C004C005C006C0070512E50B
:10015C001270020511AE11FFE4FCFD7B607AEAF926
:10016C00F8C31202507004F511F512AE11AF127CE7
:10017C00007D0A1201FBED4C7002D200AE11AF12E1
:10018C007C007D321201FBED4C7002D201AE11AF3E
:10019C00127C007D641201FBED4C7002D202AE1198
:1001AC00AF127C007DC81201FBED4C7002D203AE85
:1001BC0011AF127C007DFA1201FBED4C7002D204DF
:1001CC00AE11AF127C037DE81201FBED4C7002D234
:1001DC000512041FD007D006D005D004D003D002DE
:0F01EC00D001D000D0D0D082D083D0F0D0E0327C
:10041F007580FFE5A0541F44E0F5A053A01FE4F53D
:10042F0080E5A0541F44C0F5A0AF087401A80708C9
:10043F008002C333D8FCF58053A01F7580FFE5A061
:10044F00541F44E0F5A074132508F8E69004D293E6
:10045F00F4F58053A01F0508E508C394084003E492
:02046F00F5088E
:010471002268
:0D071B00C2AF908000E4F053A01FD2AF22C7
:1003180043B00FE5B0540FFF640F6066E509C3945E
:10032800C850020509E509C3940550037FFF22E57B
:100338000964057037750A01750C37EF24F9601ADE
:1003480024FC601124FE6008147014750B078019D2
:10035800750B068014750B05800F750B04800A75E4
:100368000BFFE4F50AF50CF509AF0B22E50C600C60
:10037800D50C0C750C37E50B240AFF22750C377F5A
:10038800FF22E4F509E50AB40109E4F50AE50B24BE
:0503980014FF227FFFAD
:01039D00223D
:10001E0075B00FC2C2C2C4E5B0540FFF640F7003B7
:10002E00020128E50DC394C85002050DE50DC394D9
:10003E000550037FFF22E50D640560030201127572
:10004E000E01751037E5B0540FFF75B0F0D2C2D265
:10005E00C4E5B054F0FE30C205430640800353069B
:10006E00BF30C405430680800353067FEE4207EF80
:10007E0012026600B57700BA7B00BF7D00C47E0019
:10008E00C9B700CEBB00D3BD00D8BE00DDD700E29D
:10009E00DB00E7DD00ECDE00F1E700F6EB00FBED48
:1000AE000100EE00000105750F048055750F0580E7
:1000BE0050750F06804B750F078046750F088041EF
:1000CE00750F09803C750F0A8037750F0B803275DE
:1000DE000F0C802D750F0D8028750F0E8023750F58
:1000EE000F801E750F108019750F118014750F1269
:1000FE00800F750F13800A750FFFE4F50EF510F5DE
:10010E000DAF0F22E510600CD5100C751037E50FF2
:10011E002414FF227510377FFF22E4F50DE50EB48F
:0D012E000109E4F50EE50F2428FF227FFFF4
:01013B0022A1
:1006DD00E4FEC297EF1392A3EFC313FFD2970EBEA2
:0206ED0008F013
:0106EF0022E8
:1006C900C29300C29700D293001206DDAF0512064D
:0406D900DDC29322C9
:10047200E4FDC29300C29700D293001206DDE4FFAE
:10048200C297EDC313FD30A303430580D2970FBF7C
:1004920008EEC29300C29700D29700C2A300D2A373
:0304A20000AF05A3
:0104A5002234
:04072800D2A07F05D7
:08072C0000AE071FEE70F92278
:0F06F000D2A1120728C2A17F0512072CC2A02297
:0C073400C2A1120728D2A17F0502072CE9
:0705F800120634AD07D20723
:1005FF00C2A0A20792A17F0512072C120728C2A042
:07060F00D2A17F0502072CB8
:0A065100AB071206F07F901204A61A
:10065B00120728A2A19207C2A07F0512072CA2079E
:01066B00226C
:0204A600AD07A0
:1004A800E4FCC2A07F0512072CED30E704D2A1803E
:1004B80002C2A17F0512072CD2A0ED25E0FD7F0521
:0904C80012072C0CBC08DBC2A0D9
:0104D1002208
:10063400E4FC120728ED25E0FD30A103430501C2C7
:0C064400A07F0512072C0CBC08E8AF05D5
:010650002287
:10057700AB05AA071206F07FA01204A612065BAF0E
:10058700021204A612065BAF031204A612065B0250
:02059700073427
:02052700AB0720
:100529001206F07FA01204A612065BAF031204A6FE
:1005390012065B1206F07FA11204A612065B1205D1
:06054900F8120734AF05B3
:01054F002289
:100003001206517F401204A612065BAF031204A628
:0600130012065B02073437
:1005D900120651AF031204A612065B1206F07F91B0
:0E05E9001204A612065B1205F8120734AF05C5
:0105F70022E1
:0406FF007F057E00F5
:0B070300EF1FAC0670011E4C70F622C8
:02061600AD072E
:10061800E4FBC294ED1392941206FFD294EDC31337
:0C062800FD0BBB08ED7F057E0002070300
:10068600E4FBC294EDC313FDD2943094034305807A
:090696001206FF0BBB08EBAF05D7
:01069F002238
:10055000C206D2947F0C7E00120703C2947F507EA5
:1005600000120703D2947F0A7E00120703A294921E
:06057000061206FFA206C0
:010576002262
:0300000002028C6D
:0C028C00787FE4F6D8FD7581200202D3D3
:1001FB00BC000BBE0029EF8DF084FFADF022E4CCE8
:10020B00F875F008EF2FFFEE33FEEC33FCEE9DECB0
:10021B00984005FCEE9DFE0FD5F0E9E4CEFD22EDF6
:10022B00F8F5F0EE8420D21CFEADF075F008EF2F40
:10023B00FFED33FD4007985006D5F0F222C398FD31
:05024B000FD5F0EA22CE
:10025000EB9FF5F0EA9E42F0E99D42F0EC6480C825
:0602600064809845F022C5
:10026600D083D082F8E4937012740193700DA3A327
:1002760093F8740193F5828883E47374029368603B
:06028600EFA3A3A380DF3B
:1002980002039EE493A3F8E493A34003F68001F2DB
:1002A80008DFF48029E493A3F85407240CC8C33367
:1002B800C4540F4420C8834004F456800146F6DF36
:1002C800E4800B01020408102040809004FDE47EC5
:1002D800019360BCA3FF543F30E509541FFEE4932B
:1002E800A360010ECF54C025E060A840B8E493A3F2
:1002F800FAE493A3F8E493A3C8C582C8CAC583CA1D
:10030800F0A3C8C582C8CAC583CADFE9DEE780BED4
:0105260000D4
:00000001FF
