:10030C003F065B4F666D7D077F6F777C395E797139
:10031C000040761E7038375C733E783D6750376E00
:0B032C00BF86DBCFE6EDFD87FFEF464C
:10037700020D0000080F10101010101010100108C7
:0D03870000010900010A00010B00010C3704
:10025A00E4F5177518FFFDFF1203377FFF1203AF8E
:10026A00120003300007C2001201698F18E518F462
:10027A0060F1E51875F00A84F50FE51875F00A843F
:10028A0085F010E51824FB600F146015146016241D
:10029A00037017E4FDFF80047D017F01120337809C
:0F02AA00097FFF8002E4FF1203AF7518FF80B4D5
:10033700E4FEEF60027E40ED6003430610C2AF8E1D
:1003470080E5A0541F44A0F5A08E8053A01FD2AF14
:010357002283
:10039500E4FEEF60027E40ED6003430610C2AF90BD
:0903A500A000EEF053A01FD2AF3E
:0103AE00222C
:10035800EF1FAA0670011E4A60147C027D80D3ED4F
:0E0368009400EC940040E9ED1D70F31C80F051
:010376002264
:1003AF00C2AF8F80E5A0541F4480F5A08F8053A06B
:0403BF001FD2AF2278
:0D03C300C2AF908000EFF053A01FD2AF2218
:10000300538EBF53890F758B18758DFCC28FD28E9B
:05001300D2ABD2AF22C8
:03001B0002001EC2
:10001E00C0E0C0F0C083C082C0D075D000C000C0A8
:10002E0001C002C003C004C005C006C007050EE52E
:10003E000E7002050DAE0DFFE4FCFD7B607AEAF951
:10004E00F8C31202447004F50DF50EAE0DAF0E7C22
:10005E00007D0A1201EFED4C7002D200AE0DAF0E14
:10006E007C007D321201EFED4C7002D201AE0DAF6D
:10007E000E7C007D641201EFED4C7002D202AE0DCB
:10008E00AF0E7C007DC81201EFED4C7002D203AEB4
:10009E000DAF0E7C007DFA1201EFED4C7002D20412
:1000AE00AE0DAF0E7C037DE81201EFED4C7002D267
:1000BE00051202B9D007D006D005D004D003D00265
:0F00CE00D001D000D0D0D082D083D0F0D0E0329B
:1002B9007580FFE5A0541F44E0F5A053A01FE4F5A5
:1002C90080E5A0541F44C0F5A0AF087401A8070831
:1002D9008002C333D8FCF58053A01F7580FFE5A0C9
:1002E900541F44E0F5A0740F2508F8E690030C9319
:1002F900F4F58053A01F0508E508C394084003E4FA
:02030900F508F5
:01030B0022CF
:0D03D000C2AF908000E4F053A01FD2AF2216
:1001690043B00FE5B0540FFF640F6066E509C3940F
:10017900C850020509E509C3940550037FFF22E52C
:100189000964057037750A01750C37EF24F9601A8F
:1001990024FC601124FE6008147014750B07801983
:1001A900750B068014750B05800F750B04800A7595
:1001B9000BFFE4F50AF50CF509AF0B22E50C600C11
:1001C900D50C0C750C37E50B240AFF22750C377F0B
:1001D900FF22E4F509E50AB40109E4F50AE50B246F
:0501E90014FF227FFF5E
:0101EE0022EE
:030000000200DD1E
:0C00DD00787FE4F6D8FD75812002012434
:1001EF00BC000BBE0029EF8DF084FFADF022E4CCF4
:1001FF00F875F008EF2FFFEE33FEEC33FCEE9DECBD
:10020F00984005FCEE9DFE0FD5F0E9E4CEFD22ED02
:10021F00F8F5F0EE8420D21CFEADF075F008EF2F4C
:10022F00FFED33FD4007985006D5F0F222C398FD3D
:05023F000FD5F0EA22DA
:10024400EB9FF5F0EA9E42F0E99D42F0EC6480C831
:0602540064809845F022D1
:1000E90002025AE493A3F8E493A34003F68001F2D1
:1000F90008DFF48029E493A3F85407240CC8C33318
:10010900C4540F4420C8834004F456800146F6DFE6
:10011900E4800B0102040810204080900377E47EFC
:10012900019360BCA3FF543F30E509541FFEE493DB
:10013900A360010ECF54C025E060A840B8E493A3A2
:10014900FAE493A3F8E493A3C8C582C8CAC583CACD
:10015900F0A3C8C582C8CAC583CADFE9DEE780BE85
:010394000068
:00000001FF
