:100A57003F065B4F666D7D077F6F777C395E7971E7
:100A67000040761E7038375C733E783D6750376EAE
:100A7700BF86DBCFE6EDFD87FFEF4641414153538C
:070A87005353535341414159
:100901000245000008481010101010101010C1030B
:10091100014200014700C10201220001230001241C
:1009210000012500012600012737012800012900C7
:06093100012A00012B3732
:1009D700E4F5507551FFF552F553FDFF120B927F69
:1009E700FF120D0E120CE4D3E51C944CE51B941D6D
:1009F700400512083580F03000FDC2001207AF8FA6
:100A070051E551B404F1300204C20280EAD20280F7
:010A1700E6F8
:100B9200E4FEEF60027E40ED6003430610C2AF8EBA
:100BA20080E5A0541F44A0F5A08E8053A01FD2AFB1
:010BB2002220
:100C8000E4FEEF60027E40ED6003430610C2AF90C9
:090C9000A000EEF053A01FD2AF4A
:010C99002238
:100BB300EF1FAA0670011E4A60147C027D80D3EDEC
:0E0BC3009400EC940040E9ED1D70F31C80F0EE
:010BD1002201
:100D0E00C2AF8F80E5A0541F4480F5A08F8053A002
:040D1E001FD2AF220F
:0D0D6800C2AF908000EFF053A01FD2AF2269
:100CE400538EBF53890F758B50758DFBC28FD28E77
:050CF400D2ABD2AF22DB
:03001B000204D705
:1004D700C0E0C0F0C083C082C0D075D000C000C0EB
:0D04E70001C002C003C004C005C006C0076C
:1004F4000522E522640A60030205C9F5220546E5E2
:100504004670020545AE45FFE4FCFD7B607AEAF9DE
:10051400F8C31203467004F545F546AE45AF467C74
:10052400007D0A1202E3ED4C7002D200AE45AF46E4
:100534007C007D321202E3ED4C7002D201AE45AF75
:10054400467C007D641202E3ED4C7002D204AE4599
:10055400AF467C007DC81202E3ED4C7002D205AEBA
:1005640045AF467C007DFA1202E3ED4C7002D206E0
:10057400AE45AF467C037DE81202E3ED4C7002D237
:10058400071208AE120003AE45AF467C037DE812A5
:1005940002E3ED4C7005120CF9802AAE45AF467C9F
:1005A400037DE81202E3BC011CBDF419C28CAF8CBC
:1005B400EFFEAD8A7C00E42DFFEC3EFEEF25E0F576
:1005C40041EE33F540E52270047F018016200209D4
:1005D400E522B40204E4FF800A30020AE522B408EA
:0605E40005E4FF120C4AC1
:1005EA00D007D006D005D004D003D002D001D00065
:0B05FA00D0D0D082D083D0F0D0E0320F
:1008AE007580FFE5A0541F44E0F5A053A01FE4F5AA
:1008BE0080E5A0541F44C0F5A0AF237401A807081B
:1008CE008002C333D8FCF58053A01F7580FFE5A0CE
:1008DE00541F44E0F5A074482523F8E6900A579378
:1008EE00F4F58053A01F0523E523C394084003E4C9
:0208FE00F523E0
:0109000022D4
:0D0D7500C2AF908000E4F053A01FD2AF2267
:1007AF0043B00FE5B0540FFF640F6066E524C394A8
:1007BF00C850020524E524C3940550037FFF22E5AA
:1007CF002464057037752501752737EF24F9601AF2
:1007DF0024FC601124FE600814701475260780191C
:1007EF007526068014752605800F752604800A75F8
:1007FF0026FFE4F525F527F524AF2622E527600C23
:10080F00D5270C752737E526240AFF227527377F52
:10081F00FF22E4F524E525B40109E4F525E52624B6
:05082F0014FF227FFF11
:0108340022A1
:1006050075B00FC2C2C2C4E5B0540FFF640F7003CA
:1006150002070FE528C394C850020528E528C394AE
:100625000550037FFF22E528640560030206F9757E
:100635002901752B37E5B0540FFF75B0F0D2C2D242
:10064500C4E5B054F0FE30C20543064080035306AE
:10065500BF30C405430680800353067FEE4207EF93
:1006650012035C069C7706A17B06A67D06AB7E067B
:10067500B0B706B5BB06BABD06BFBE06C4D706C928
:10068500DB06CEDD06D3DE06D8E706DDEB06E2EDBA
:1006950006E7EE000006EC752A048055752A0580EC
:1006A50050752A06804B752A078046752A088041B1
:1006B500752A09803C752A0A8037752A0B803275A0
:1006C5002A0C802D752A0D8028752A0E8023752AFF
:1006D5000F801E752A108019752A118014752A122B
:1006E500800F752A13800A752AFFE4F529F52BF585
:1006F50028AF2A22E52B600CD52B0C752B37E52A64
:100705002414FF22752B377FFF22E4F528E529B451
:0D0715000109E4F529E52A2428FF227FFFD1
:0107220022B4
:10000300759850438E01438E0475D73C75D6F643DD
:070013008E10D2ACD2AF2227
:030023000209923D
:0B099200C0E0C0D075D000C000C0075E
:10099D0030982EC298742C2542F8A699742C2542B5
:1009AD00F8E6F5990542E542D3941340117F14788A
:1009BD002CE4F608DFFC754200754700800375478F
:0109CD000524
:0909CE00D007D000D0D0D0E032F7
:10038200E4FFC2900FBF08FA000000000000000066
:10039200000000000000000000000000000000005B
:1003A200000000000000000000000000000000004B
:1003B200000000000000000000000000000000003B
:1003C200000000000000000000000000000000002B
:1003D200000000000000000000000000000000001B
:1003E200000000000000000000000000000000000B
:1003F20000000000000000000000000000000000FB
:1004020000000000000000000000000000000000EA
:1004120000000000000000000000000000000000DA
:1004220000000000000000000000000000D2900068
:1004320000000000000000000000000000000000BA
:1004420000000000000000000000000000000000AA
:10045200000000000000000000000000000000009A
:10046200000000000000000000000000000000008A
:10047200000000000000000000000000000000007A
:10048200000000000000000000000000000000006A
:10049200000000000000000000000000000000005A
:1004A200000000000000000000000000000000004A
:1004B200000000000000000000000000000000003A
:1004C200000000000000000000000000000000002A
:0404D2000000000026
:0104D6002203
:100D4900538E7F5389F0E4F58AF58CC28DD28C22BB
:10094A00120382120D49309107E58CC3943340F6A5
:10095A00C28CE58CC3943340077543037544E72280
:10096A00AF8CEFFEAD8A7C00E42DFFEC3EFEAD07B6
:10097A00FCE41202297B967A43798B783C12011E99
:07098A001202628E438F444C
:010991002243
:100CF900538E7F5389F0438904E4F58AF58CC28DBC
:050D0900D28CC2A922FA
:100C4A00E4FEEF60027E20C2AF8E80E5A0541F440E
:0A0C5A00A0F5A08E8053A01FD2AFBA
:010C6400226D
:10093700070F230813062359540708230813061122
:02094700205539
:100D3600E4FEC297EF1392A3EFC313FFD2970EBE42
:020D460008F0B3
:010D48002288
:100D2200C29300C29700D29300120D36AF05120D86
:040D320036C2932210
:100A8E00E4FDC29300C29700D29300120D36E4FF2C
:100A9E00C297EDC313FD30A303430580D2970FBF5A
:100AAE0008EEC29300C29700D29700C2A300D2A351
:030ABE0000AF0581
:010AC1002212
:100A1800E4FD7F8E120D22AD0F7F8C120D22AD10DA
:100A28007F88120D22AD117F86120D22AD127F8AAA
:100A3800120D22AD137F84120D22AD147F82120D88
:0F0A480022AD157F80120D227D807F8E020D2240
:100AC2007F8D120A8E8F087F89120A8E8F097F8787
:100AD200120A8E8F0A7F8B120A8E8F0B7F85120A63
:100AE2008E8F0C7F83120A8E8F0D7F81120A8E8F5A
:020AF2000E22D2
:040D8200D2A07F0577
:080D860000AE071FEE70F92218
:0F0D5900D2A1120D82C2A17F05120D86C2A02267
:0C0D8E00C2A1120D82D2A17F05020D86C9
:070BF100120C2DAD07D20824
:100BF800C2A0A20892A17F05120D86120D82C2A082
:070C0800D2A17F05020D8659
:0A0C6500AB07120D597F90120AF43C
:100C6F00120D82A2A19209C2A07F05120D86A209C0
:010C7F002252
:020AF400AD074C
:100AF600E4FCC2A07F05120D86ED30E704D2A1808A
:100B060002C2A17F05120D86D2A0ED25E0FD7F056C
:090B1600120D860CBC08DBC2A024
:010B1F0022B3
:100C2D00E4FC120D82ED25E0FD30A103430501C268
:0C0C3D00A07F05120D860CBC08E8AF0576
:010C49002288
:100B7000AB05AA07120D597FA0120AF4120C6FAF31
:100B800002120AF4120C6FAF03120AF4120C6F0275
:020B90000D8EC8
:020B2000AB0721
:100B2200120D597FA0120AF4120C6FAF03120AF4CD
:100B3200120C6F120D597FA1120AF4120C6F120BD4
:060B4200F1120D8EAF055B
:010B4800228A
:100CCE00120C657F40120AF4120C6FAF03120AF475
:060CDE00120C6F020D8EE6
:100BD200120C65AF03120AF4120C6F120D597F91B9
:0E0BE200120AF4120C6F120BF1120D8EAF05F9
:010BF00022E2
:040C9A007F057E0054
:100C9E00EF1FAA0670011E4A600BE4FDEDC3940C13
:050CAE0050EE0D80F77F
:010CB300221E
:020C0F00A90733
:100C1100E4FBC294E9139294120C9AD294E9C3139F
:0C0C2100F90BBB08ED7F057E00020C9E65
:100CB400E4FBC294ECC313FCD29430940343048049
:090CC400120C9A0BBB08EBAF0403
:010CCD002204
:100B4900C20AD2947F0C7E00120C9EC2947F507E02
:100B590000120C9ED2947F0A7E00120C9EA29492DF
:060B69000A120C9AA20A18
:010B6F002263
:10083500120B497FCC120C0F7F44120C0F7F147ED4
:1008450000120C9E120B497FCC120C0F7FBE120CAE
:100855000F120CB4A907120CB4AD07ED7F00FEE929
:100865002FFFE43EFEED30E712751A01EFF4FFEEBF
:10087500F4FEEF2401FFE43EFE8003E4F51AAD0724
:10088500AC06E4120229E4FBFA79C8784012011E8D
:10089500E4FBFAF9783F12002D8F198E188D178C0D
:0808A500161202628E1B8F1C6B
:0108AD002228
:100026000202CEE86480F8E933E83360110460F038
:10003600ED33EC337009E8FCE9FDEAFEEBFF220440
:1000460060DED3EB9FEA9EE99DE8C2E78CF0C2F73B
:1000560095F0400CE8CCF8E9CDF9EACEFAEBCFFB07
:1000660012029985D0F05804700320D5B3E80470C5
:10007600075002B2D50202D892D5EC0460F7E4CC60
:10008600C0E0C398F8603B94186008400DD0E0FBD0
:100096000202B0E4FBFAC9FC8028E830E406E4C9B1
:1000A600FBE4CAFCE830E305E4C9CACBFCE8540724
:1000B6006010F8C3E913F9EA13FAEB13FBEC13FC2F
:1000C600D8F130F52FC3E49CFCEF9BFFEE9AFEEDD2
:1000D60099FDD0E0FBEF4E4D4C701222DB0302027D
:1000E600D5EC2CFCEF33FFEE33FEED33FDED30E7C0
:1000F600EB0202B0EF2BFFEE3AFEED39FDD0E0FB4E
:1001060050130BBB00030202D8ED13FDEE13FEEFF6
:0801160013FFEC13FC0202B020
:10011E00EC4D6011E8497017ED33EC3304600DE4DB
:10012E00FCFFFEFD22E933E8330470F80202CE1222
:10013E00029958046009E4CC248150062850090223
:10014E0002D82840030202D5C0E0EB4A7044B980C1
:10015E0006D0E0FB0202C4EF4E701CBD8008EBFF20
:10016E00EAFEE9FD80EBE98DF0A4FEE5F002020760
:10017E00E9CDF9EAFEEBFFEF89F0A4FCE5F0CE89BC
:10018E00F0A42EFFE435F0CD89F0A42DFEE435F079
:10019E008067EF4E7005BD80D780C3EF8BF0A4ACA7
:1001AE00F0EE8BF0A42CFCE435F0F8EF8AF0A42CE2
:1001BE00E5F038FCE433CB8DF0A42CFCE5F03BF8F5
:1001CE00EE8AF0A42CFCE5F038F8E433CF89F0A4E5
:1001DE002CFCE5F038CF3400CE89F0A42FFFE5F0EB
:1001EE003EFEE433C98DF0A42EFEE5F039CD8AF043
:1001FE00A42FFFE5F03EFEE43DFD33D0E0FB5007BB
:10020E000BBB000F0202D8EC2CFCEF33FFEE33FEDB
:06021E00ED33FD0202B009
:1002240075F020800E75F010800575F0087D007E55
:10023400007F003392D530D503120338EC334010DD
:10024400EF33FFEE33FEED33FDEC33FCD5F0ED225E
:0E025400E5F0247EA2D513CC92E7CDCEFF229A
:10026200EDD2E7CD33EC3392D524814006E4FFFE94
:10027200FDFC22FCE4CFCECDCC24E0501174FF80F3
:10028200EDC3CC13CCCD13CDCE13CECF13CF047090
:07029200F030D5DE02033855
:10029900E9D2E7C933E833F892D5EDD2E7CD33ECAB
:0702A90033FC5002B2D52224
:1002B000EC30E7100FBF000C0EBE00080DBD0004AF
:1002C0000BEB6014A2D5EB13FCED92E7FD2274FF5B
:1002D000FCFDFEFF22E480F8A2D574FF13FC7D80B4
:0302E000E480EFC8
:03000000020723D1
:0C072300787FE4F6D8FD75815402076A67
:1002E300BC000BBE0029EF8DF084FFADF022E4CCFF
:1002F300F875F008EF2FFFEE33FEEC33FCEE9DECC8
:10030300984005FCEE9DFE0FD5F0E9E4CEFD22ED0D
:10031300F8F5F0EE8420D21CFEADF075F008EF2F57
:10032300FFED33FD4007985006D5F0F222C398FD48
:050333000FD5F0EA22E5
:0E033800C3E49FFFE49EFEE49DFDE49CFC22D6
:10034600EB9FF5F0EA9E42F0E99D42F0EC6480C82E
:0603560064809845F022CE
:10035C00D083D082F8E4937012740193700DA3A330
:10036C0093F8740193F5828883E473740293686044
:06037C00EFA3A3A380DF44
:10072F000209D7E493A3F8E493A34003F68001F200
:10073F0008DFF48029E493A3F85407240CC8C333CB
:10074F00C4540F4420C8834004F456800146F6DF9A
:10075F00E4800B0102040810204080900901E47E20
:10076F00019360BCA3FF543F30E509541FFEE4938F
:10077F00A360010ECF54C025E060A840B8E493A356
:10078F00FAE493A3F8E493A3C8C582C8CAC583CA81
:10079F00F0A3C8C582C8CAC583CADFE9DEE780BE39
:0109490000AD
:00000001FF
