:100865003F065B4F666D7D077F6F777C395E7971DB
:100875000040761E7038375C733E783D6750376EA2
:0B088500BF86DBCFE6EDFD87FFEF46EE
:1008900002110000081310101010101010100108A1
:1008A00000010900010A00010B00010C37010D00D5
:0908B000010E00010F00011037D8
:10056700E4F51B751CFFF51DF51EFDFF12092C7F19
:10057700FF120A62120A4D3003FDC203120739C384
:10058700E52794E8E5269403401CAE26AF277C2791
:100597007D101202DB7E037FE8CFCDCFCECCCE120B
:1005A70002DB8F138003751310AE26AF277C037D04
:1005B700E81202DB7E007F64CFCDCFCECCCE120215
:1005C700DBEF2420F514AE26AF277C007D641202F2
:1005D700DB7E007F0ACFCDCFCECCCE1202DB8F15CC
:1005E700AE26AF277C007D0A1202DB8D167F011233
:1005F700096C7F0112096C7F0112096C8F1DE51DC3
:1006070075F06484F518E51D75F06484E5F075F000
:100617000A84F519E51D75F00A8485F01A02057E2E
:10092C00E4FEEF60027E40ED6003430610C2AF8E22
:10093C0080E5A0541F44A0F5A08E8053A01FD2AF19
:01094C002288
:1009FF00E4FEEF60027E40ED6003430610C2AF904D
:090A0F00A000EEF053A01FD2AFCD
:010A180022BB
:10094D00EF1FAA0670011E4A60147C027D80D3ED54
:0E095D009400EC940040E9ED1D70F31C80F056
:01096B002269
:100A6200C2AF8F80E5A0541F4480F5A08F8053A0B1
:040A72001FD2AF22BE
:0D0AAC00C2AF908000EFF053A01FD2AF2228
:100A4D00538EBF53890F758B18758DFCC28FD28E47
:050A5D00D2ABD2AF2274
:03001B0002049844
:10049800C0E0C0F0C083C082C0D075D000C000C02A
:1004A80001C002C003C004C005C006C0070512E5AC
:1004B8001270020511AE11FFE4FCFD7B607AEAF9C7
:1004C800F8C312033E7004F511F512AE11AF127C99
:1004D800007D0A1202DBED4C7002D200AE11AF12A1
:1004E8007C007D321202DBED4C7002D201AE11AFFE
:1004F800127C007D641202DBED4C7002D202AE1158
:10050800AF127C007DC81202DBED4C7002D203AE44
:1005180011AF127C007DFA1202DBED4C7002D2049E
:10052800AE11AF127C037DE81202DBED4C7002D2F3
:10053800051207B2D3E527944CE526941D40051211
:10054800073980F0D007D006D005D004D003D002F8
:0F055800D001D000D0D0D082D083D0F0D0E0320C
:1007B2007580FFE5A0541F44E0F5A053A01FE4F5A7
:1007C20080E5A0541F44C0F5A0AF087401A8070833
:1007D2008002C333D8FCF58053A01F7580FFE5A0CB
:1007E200541F44E0F5A074132508F8E690086593B9
:1007F200F4F58053A01F0508E508C394084003E4FC
:02080200F508F7
:0108040022D1
:0D0AB900C2AF908000E4F053A01FD2AF2226
:1006B30043B00FE5B0540FFF640F6066E509C394C0
:1006C300C850020509E509C3940550037FFF22E5DD
:1006D3000964057037750A01750C37EF24F9601A40
:1006E30024FC601124FE6008147014750B07801934
:1006F300750B068014750B05800F750B04800A7546
:100703000BFFE4F50AF50CF509AF0B22E50C600CC1
:10071300D50C0C750C37E50B240AFF22750C377FBB
:10072300FF22E4F509E50AB40109E4F50AE50B241F
:0507330014FF227FFF0E
:01073800229E
:10037A0075B00FC2C2C2C4E5B0540FFF640F700358
:10038A00020484E50DC394C85002050DE50DC3941B
:10039A000550037FFF22E50D6405600302046E75B4
:1003AA000E01751037E5B0540FFF75B0F0D2C2D206
:1003BA00C4E5B054F0FE30C205430640800353063C
:1003CA00BF30C405430680800353067FEE4207EF21
:1003DA0012035404117704167B041B7D04207E0447
:1003EA0025B7042ABB042FBD0434BE0439D7043E02
:1003FA00DB0443DD0448DE044DE70452EB0457ED09
:10040A00045CEE00000461750F048055750F0580C9
:10041A0050750F06804B750F078046750F0880418F
:10042A00750F09803C750F0A8037750F0B8032757E
:10043A000F0C802D750F0D8028750F0E8023750FF8
:10044A000F801E750F108019750F118014750F1209
:10045A00800F750F13800A750FFFE4F50EF510F57E
:10046A000DAF0F22E510600CD5100C751037E50F93
:10047A002414FF227510377FFF22E4F50DE50EB430
:0D048A000109E4F50EE50F2428FF227FFF95
:010497002242
:100A8A00E4FEC297EF1392A3EFC313FFD2970EBEF1
:020A9A0008F062
:010A9C002237
:100A7600C29300C29700D29300120A8AAF05120AE7
:040A86008AC293226B
:10080500E4FDC29300C29700D29300120A8AE4FF66
:10081500C297EDC313FD30A303430580D2970FBFE5
:1008250008EEC29300C29700D29700C2A300D2A3DC
:0308350000AF050C
:01083800229D
:040AC600D2A07F0536
:080ACA0000AE071FEE70F922D7
:0F0A9D00D2A1120AC6C2A17F05120ACAC2A022A4
:0C0AD200C2A1120AC6D2A17F05020ACA06
:07098B001209C7AD07D207F6
:10099200C2A0A20792A17F05120ACA120AC6C2A069
:0709A200D2A17F05020ACA81
:0A09E400AB07120A9D7F901208393C
:1009EE00120AC6A2A19207C2A07F05120ACAA207C6
:0109FE0022D6
:02083900AD0709
:10083B00E4FCC2A07F05120ACAED30E704D2A18006
:10084B0002C2A17F05120ACAD2A0ED25E0FD7F05E9
:09085B00120ACA0CBC08DBC2A0A1
:010864002271
:1009C700E4FC120AC6ED25E0FD30A103430501C290
:0C09D700A07F05120ACA0CBC08E8AF059E
:0109E30022F1
:10090A00AB05AA07120A9D7FA01208391209EEAF99
:10091A00021208391209EEAF031208391209EE025F
:02092A000AD2EF
:0208BA00AB078A
:1008BC00120A9D7FA01208391209EEAF03120839F3
:1008CC001209EE120A9D7FA11208391209EE1209C3
:0608DC008B120AD2AF05E9
:0108E20022F3
:100003001209E47F401208391209EEAF03120839CE
:060013001209EE020AD200
:10096C001209E4AF031208391209EE120A9D7F91A5
:0E097C001208391209EE12098B120AD2AF05C9
:01098A00224A
:040A19007F057E00D7
:100A1D00EF1FAA0670011E4A600BE4FDEDC3940C96
:050A2D0050EE0D80F702
:010A320022A1
:0209A900A9079C
:1009AB00E4FBC294E9139294120A19D294E9C3138B
:0C09BB00F90BBB08ED7F057E00020A1D51
:100A3300E4FBC294ECC313FCD294309403430480CC
:090A4300120A190BBB08EBAF0409
:010A4C002287
:1008E300C207D2947F0C7E00120A1DC2947F507EF1
:1008F30000120A1DD2947F0A7E00120A1DA294924E
:0609030007120A19A20709
:0109090022CB
:100739001208E37FCC1209A97F441209A97F147E0C
:1007490000120A1D1208E37FCC1209A97FBE120903
:10075900A9120A33A907120A33AD07ED7F00FEE992
:100769002FFFE43EFEED30E712752501EFF4FFEEB1
:10077900F4FEEF2401FFE43EFE8003E4F525AD0716
:10078900AC06E4120221E4FBFA79C878401201169A
:10079900E4FBFAF9783F1200258F248E238D228CF1
:0807A9002112025A8E268F274F
:0107B1002225
:10001E000202C6E86480F8E933E83360110460F048
:10002E00ED33EC337009E8FCE9FDEAFEEBFF220448
:10003E0060DED3EB9FEA9EE99DE8C2E78CF0C2F743
:10004E0095F0400CE8CCF8E9CDF9EACEFAEBCFFB0F
:10005E0012029185D0F05804700320D5B3E80470D5
:10006E00075002B2D50202D092D5EC0460F7E4CC70
:10007E00C0E0C398F8603B94186008400DD0E0FBD8
:10008E000202A8E4FBFAC9FC8028E830E406E4C9C1
:10009E00FBE4CAFCE830E305E4C9CACBFCE854072C
:1000AE006010F8C3E913F9EA13FAEB13FBEC13FC37
:1000BE00D8F130F52FC3E49CFCEF9BFFEE9AFEEDDA
:1000CE0099FDD0E0FBEF4E4D4C701222DB03020285
:1000DE00CDEC2CFCEF33FFEE33FEED33FDED30E7D0
:1000EE00EB0202A8EF2BFFEE3AFEED39FDD0E0FB5E
:1000FE0050130BBB00030202D0ED13FDEE13FEEF07
:08010E0013FFEC13FC0202A830
:10011600EC4D6011E8497017ED33EC3304600DE4E3
:10012600FCFFFEFD22E933E8330470F80202C61232
:10013600029158046009E4CC248150062850090233
:1001460002D02840030202CDC0E0EB4A7044B980D9
:1001560006D0E0FB0202BCEF4E701CBD8008EBFF30
:10016600EAFEE9FD80EBE98DF0A4FEE5F00201FF71
:10017600E9CDF9EAFEEBFFEF89F0A4FCE5F0CE89C4
:10018600F0A42EFFE435F0CD89F0A42DFEE435F081
:100196008067EF4E7005BD80D780C3EF8BF0A4ACAF
:1001A600F0EE8BF0A42CFCE435F0F8EF8AF0A42CEA
:1001B600E5F038FCE433CB8DF0A42CFCE5F03BF8FD
:1001C600EE8AF0A42CFCE5F038F8E433CF89F0A4ED
:1001D6002CFCE5F038CF3400CE89F0A42FFFE5F0F3
:1001E6003EFEE433C98DF0A42EFEE5F039CD8AF04B
:1001F600A42FFFE5F03EFEE43DFD33D0E0FB5007C3
:100206000BBB000F0202D0EC2CFCEF33FFEE33FEEB
:06021600ED33FD0202A819
:10021C0075F020800E75F010800575F0087D007E5D
:10022C00007F003392D530D503120330EC334010ED
:10023C00EF33FFEE33FEED33FDEC33FCD5F0ED2266
:0E024C00E5F0247EA2D513CC92E7CDCEFF22A2
:10025A00EDD2E7CD33EC3392D524814006E4FFFE9C
:10026A00FDFC22FCE4CFCECDCC24E0501174FF80FB
:10027A00EDC3CC13CCCD13CDCE13CECF13CF047098
:07028A00F030D5DE02033065
:10029100E9D2E7C933E833F892D5EDD2E7CD33ECB3
:0702A10033FC5002B2D5222C
:1002A800EC30E7100FBF000C0EBE00080DBD0004B7
:1002B8000BEB6014A2D5EB13FCED92E7FD2274FF63
:1002C800FCFDFEFF22E480F8A2D574FF13FC7D80BC
:0302D800E480EFD0
:03000000020627CE
:0C062700787FE4F6D8FD75812702066E8E
:1002DB00BC000BBE0029EF8DF084FFADF022E4CC07
:1002EB00F875F008EF2FFFEE33FEEC33FCEE9DECD0
:1002FB00984005FCEE9DFE0FD5F0E9E4CEFD22ED16
:10030B00F8F5F0EE8420D21CFEADF075F008EF2F5F
:10031B00FFED33FD4007985006D5F0F222C398FD50
:05032B000FD5F0EA22ED
:0E033000C3E49FFFE49EFEE49DFDE49CFC22DE
:10033E00EB9FF5F0EA9E42F0E99D42F0EC6480C836
:06034E0064809845F022D6
:10035400D083D082F8E4937012740193700DA3A338
:1003640093F8740193F5828883E47374029368604C
:06037400EFA3A3A380DF4C
:10063300020567E493A3F8E493A34003F68001F271
:1006430008DFF48029E493A3F85407240CC8C333C8
:10065300C4540F4420C8834004F456800146F6DF97
:10066300E4800B0102040810204080900890E47E8F
:10067300019360BCA3FF543F30E509541FFEE4938C
:10068300A360010ECF54C025E060A840B8E493A353
:10069300FAE493A3F8E493A3C8C582C8CAC583CA7E
:1006A300F0A3C8C582C8CAC583CADFE9DEE780BE36
:0108B900003E
:00000001FF
