:100AE300538EBF53890F758B18758DFCC28FD28EB1
:050AF300D2ABD2AF22DE
:03001B0002070CCD
:10070C00C0E0C0F0C083C082C0D075D000C000C0B3
:10071C0001C002C003C004C005C006C0070537E510
:10072C0037700205360535E535700205341207576A
:10073C00D007D006D005D004D003D002D001D00011
:0B074C00D0D0D082D083D0F0D0E032BB
:10047000120AE3120ACCAF33120970EF6005E4F5FB
:10048000808003758004E5A0541F44A0F5A053A00C
:100490001FE537640145367005120B378017C3E539
:1004A0003794F4E5369401400CE4F536F537120B39
:1004B000838E318F32D3E53594C8E5349400403DC6
:1004C000E4F534F53512082CE4FBFA79C8784212C9
:1004D000002612020A8E2F8F307B007A00792F12AD
:1004E00009967F03120B22AC07E41201D67B0A7A2D
:1004F000D77923784012012F12020A8F33AE31AF21
:10050000327C277D101202A48F39AE31AF327C27A6
:100510007D101202A47E037FE8CFCDCFCECCCE12C9
:1005200002A48F3AAE31AF327C037DE81202A47E82
:10053000007F64CFCDCFCECCCE1202A48F3BAE31A4
:10054000AF327C007D641202A47E007F0ACFCDCF43
:10055000CECCCE1202A48F3CAE31AF327C007D0AED
:100560001202A48D3DE53375F00A84F53FE533753D
:09057000F00A8485F040020476D3
:1009BB00072823081306235954072123081306116C
:0209CB002055B5
:100B6000E4FEC297EF1392A3EFC313FFD2970EBE1A
:020B700008F08B
:010B72002260
:100B4C00C29300C29700D29300120B60AF05120B38
:040B5C0060C29322BE
:10086400E4FDC29300C29700D29300120B60E4FF30
:10087400C297EDC313FD30A303430580D2970FBF86
:1008840008EEC29300C29700D29700C2A300D2A37D
:0308940000AF05AD
:01089700223E
:1007ED00E4FD7F8E120B4CAD287F8C120B4CAD2986
:1007FD007F88120B4CAD2A7F86120B4CAD2B7F8A56
:10080D00120B4CAD2C7F84120B4CAD2D7F82120B35
:0F081D004CAD2E7F80120B4C7D807F8E020B4CDA
:100898007F8D1208648F217F891208648F227F87D9
:1008A8001208648F237F8B1208648F247F851208B7
:1008B800648F257F831208648F267F811208648FD6
:0208C8002722E5
:040A4F00D2A07F05AD
:100A5300000000000000000000000000000000AEE5
:060A6300071FEE70EB22FC
:0F0B9300D2A1120A4FC2A17F05120A53C2A0229B
:100A33001208CA120A211209F9AD077F0112000335
:0C0A4300C2A1120A4FD2A17F05020A5383
:0208CA00AD0778
:1008CC00E4FCC2A07F05120A53ED30E704D2A180EC
:1008DC0002C2A17F05120A53D2A0ED25E0FD7F05CF
:0908EC00120A530CBC08DBC2A087
:0108F50022E0
:1009F900E4FC120A4FED25E0FD30A103430501C2D5
:0C0A0900A07F05120A530CBC08E8AF05E2
:010A150022BE
:0B0A16001208CA120A21AF031208CA1E
:100A2100120A4FA2A1E433FDC2A07F05120A53AFFF
:010A310005BF
:010A320022A1
:10000300C2A0EF24FF92A17F05120A53120A4FC226
:08001300A0D2A17F05020A53EF
:100AB500AB05AA07120B937FA01208CA120A21AF31
:070AC50002120A16020A43A7
:020AF800AB074A
:100AFA00120B937FA0120A16120B937FA1120A33CC
:020B0A00AF0535
:010B0C0022C6
:100B0D00AB07120B937F901208CA120A217F401275
:050B1D000A16020A4364
:020B2200AB071F
:100B2400120B937F90120A16120B937F91120A33C1
:020B3400AF050B
:010B3600229C
:040A69007F057E0087
:100A6D00EF1FAA0670011E4A600BE4FDEDC3940C46
:050A7D0050EE0D80F7B2
:010A82002251
:0209DB00A9076A
:1009DD00E4FBC294E9139294120A69D294E9C31309
:0C09ED00F90BBB08ED7F057E00020A6DCF
:100A8300E4FBC294ECC313FCD2943094034304807C
:090A9300120A690BBB08EBAF0469
:010A9C002237
:10094900C200D2947F0C7E00120A6DC2947F507E41
:1009590000120A6DD2947F0A7E00120A6DA2949247
:0609690000120A69A20061
:01096F002265
:10082C001209497FCC1209DB7F441209DB120949FA
:10083C007FCC1209DB7FBE1209DB120A83A90712D7
:10084C000A83EFFEE9FFFDAC06E41201D1E4FBFAEA
:07085C007980783D120026AF
:010863002272
:1008F6003F065B4F666D7D077F6F777C395E79714A
:100906000040761E7038375C733E783D6750376E10
:0B091600BF86DBCFE6EDFD87FFEF465C
:0D09CD000839101010101010101001380023
:10075700E4F580E5A0541F44C0F5A053A01FAF38AF
:100767007401A807088002C333D8FCF580E5A054BC
:100777001F44C0F5A053A01F7580FF74392538F8B2
:10078700E69008F693F4F580E5A0541F44E0F5A041
:0A07970053A01FE538045407F5389D
:0107A1002235
:10057900C2C4D2C2D2B5D2B4E5B0540F7E00D2C43F
:10058900C2C2D2B5D2B4C4F8540FC868FFEEC4547D
:10059900F048FEE5B0540FFDEF4DD2C4D2C2C2B54A
:1005A900D2B4C4F8540FC868FFEEC454F048FEE54D
:1005B900B0540FFDEF4DD2C4D2C2D2B5C2B4C4F803
:1005C900540FC868FFEEC454F048FEE5B0540FFD5F
:1005D900EF4DF4FFEEF4FEEF8EF0120307067500FF
:1005E9000106700002066B00040666000806610039
:1005F90010065C00200657004006520080064D0197
:10060900000648020006430400063E0800063910A9
:100619000006342000062F4000062A80000000064C
:100629007A751D04804E751D058049751D06804427
:10063900751D07803F751D08803A751D0980357540
:100649001D0A8030751D0B802B751D0C8026751DAC
:100659000D8021751D0E801C751D0F8017751D10CD
:100669008012751D11800D751D128008751D13806E
:0606790003E4F51DAF1DB6
:01067F002258
:100A9D001205798F41E5436541FF5541F542E54129
:080AAD00F45FF544854143228A
:100B7300538E7F5389F0E4F58AF58CC28DD28C2293
:10033400E4FFC29000000000000000000000000084
:1003440000000000000000000000000000000000A9
:100354000000000000000000000000000000000099
:100364000000000000000000000000000000000089
:100374000000000000000000000000000000000079
:100384000000000000000000000000000000000069
:100394000000000000000000000000000000000059
:1003A4000000000000000000000000000000000049
:1003B4000000000000000000000000000000000039
:1003C40000000000000000000000D29000000000C7
:1003D4000000000000000000000000000000000019
:1003E4000000000000000000000000000000000009
:1003F40000000000000000000000000000000000F9
:1004040000000000000000000000000000000000E8
:1004140000000000000000000000000000000000D8
:1004240000000000000000000000000000000000C8
:1004340000000000000000000000000000000000B8
:1004440000000000000000000000000000000000A8
:100454000000000000000000000000000000000098
:0B04640000000FEF6408600302033685
:01046F00226A
:1007A200120334120B73309107E58CC3945040F658
:1007B200C28CE58CC3944F40067C037DE78027AF53
:1007C2008CEFFEAD8A7C00E42DFFEC3EFEAD07FC13
:1007D200E41201D17B287A7E798C783C12002612B1
:0A07E200020AAC06AD07AF05AE0435
:0107EC0022EA
:100ACC00759850438E01438E0475D7C775D6FE4377
:070ADC008E10D2ACD2AF2254
:080BA2008F993099FDC29922E0
:100996008B468A478948AB46AA47A94812028B600C
:1009A600130548E5487002054714F912028BFF1239
:0509B6000BA280E2220B
:03002300020921AE
:10092100C0E0C0D075D000C000309815C2987408DE
:10093100251CF8A699051CE51CC394144003751CDD
:0809410000D000D0D0D0E0325C
:100B3700538E7F5389F0438904E4F58AF58CC28D7F
:050B4700D28CC2A922BE
:100B8300C28CAF8CEFFEAD8AED25E0FFEE33FE2283
:02097000AD07D1
:10097200AF8DEFFEAC8BECFBAA06ED75F00AA4245A
:1009820018FFE5F034FCFEC3EB9FEA9E40037F00B4
:03099200227F01C0
:01099500223F
:10002600EC4D6011E8497017ED33EC3304600DE4D4
:10003600FCFFFEFD22E933E8330470F80202761273
:10004600024158046009E4CC248150062850090274
:10005600028028400302027DC0E0EB4A7044B9806A
:1000660006D0E0FB02026CEF4E701CBD8008EBFF71
:10007600EAFEE9FD80EBE98DF0A4FEE5F002010F52
:10008600E9CDF9EAFEEBFFEF89F0A4FCE5F0CE89B5
:10009600F0A42EFFE435F0CD89F0A42DFEE435F072
:1000A6008067EF4E7005BD80D780C3EF8BF0A4ACA0
:1000B600F0EE8BF0A42CFCE435F0F8EF8AF0A42CDB
:1000C600E5F038FCE433CB8DF0A42CFCE5F03BF8EE
:1000D600EE8AF0A42CFCE5F038F8E433CF89F0A4DE
:1000E6002CFCE5F038CF3400CE89F0A42FFFE5F0E4
:1000F6003EFEE433C98DF0A42EFEE5F039CD8AF03C
:10010600A42FFFE5F03EFEE43DFD33D0E0FB5007B3
:100116000BBB000F020280EC2CFCEF33FFEE33FE2C
:06012600ED33FD0202585A
:10012C00020280EC5D046005E8590470030202765B
:10013C00120241580460F6EC4860F2EC7004FDFECB
:10014C00FF22C860DB2481C85009C39860025006A6
:10015C0002027D9850CAF582E9294B4A7005AB82A0
:10016C0002026C75F0007C1A7880C3EF9BEE9AED5E
:10017C0099400DC3EF9BFFEE9AFEED99FDE842F01E
:10018C00DC23ACF0D0E0FFD0E0FED0E0FDAB822071
:10019C00E7101BEB60BAEC2CFCEF33FFEE33FEEDFB
:1001AC0033FD020258E803F830E705C0F075F000A3
:1001BC00EF2FFFEE33FEED33FD40B830E7C280AADF
:1001CC0075F020800E75F010800575F0087D007EAE
:1001DC00007F003392D530D5031202F9EC33401076
:1001EC00EF33FFEE33FEED33FDEC33FCD5F0ED22B7
:0E01FC00E5F0247EA2D513CC92E7CDCEFF22F3
:10020A00EDD2E7CD33EC3392D524814006E4FFFEEC
:10021A00FDFC22FCE4CFCECDCC24E0501174FF804B
:10022A00EDC3CC13CCCD13CDCE13CECF13CF0470E8
:07023A00F030D5DE0202F9ED
:10024100E9D2E7C933E833F892D5EDD2E7CD33EC03
:0702510033FC5002B2D5227C
:10025800EC30E7100FBF000C0EBE00080DBD000407
:100268000BEB6014A2D5EB13FCED92E7FD2274FFB3
:10027800FCFDFEFF22E480F8A2D574FF13FC7D800C
:03028800E480EF20
:0300000002068075
:0C068000787FE4F6D8FD7581480206C7BB
:10028B00BB010689828A83E0225002E722BBFE0271
:09029B00E32289828A83E49322A4
:1002A400BC000BBE0029EF8DF084FFADF022E4CC3E
:1002B400F875F008EF2FFFEE33FEEC33FCEE9DEC07
:1002C400984005FCEE9DFE0FD5F0E9E4CEFD22ED4D
:1002D400F8F5F0EE8420D21CFEADF075F008EF2F97
:1002E400FFED33FD4007985006D5F0F222C398FD88
:0502F4000FD5F0EA2225
:0E02F900C3E49FFFE49EFEE49DFDE49CFC2216
:10030700D083D082F8E4937012740193700DA3A385
:1003170093F8740193F5828883E473740293B5F0BC
:0D032700067403936860E9A3A3A3A380D824
:10068C00020470E493A3F8E493A34003F68001F210
:10069C0008DFF48029E493A3F85407240CC8C3336F
:1006AC00C4540F4420C8834004F456800146F6DF3E
:1006BC00E4800B01020408102040809009BBE47E0A
:1006CC00019360BCA3FF543F30E509541FFEE49333
:1006DC00A360010ECF54C025E060A840B8E493A3FA
:1006EC00FAE493A3F8E493A3C8C582C8CAC583CA25
:1006FC00F0A3C8C582C8CAC583CADFE9DEE780BEDD
:0109DA00001C
:00000001FF
