:10025E003F065B4F666D7D077F6F777C395E7971E8
:10026E000040761E7038375C733E783D6750376EAF
:0B027E00BF86DBCFE6EDFD87FFEF46FB
:1002F70002090000080B1010101010101010010850
:0103070000F5
:10022700E4F513FDFF1202897FFF1202E3120003B8
:10023700750B01750C02750D03750E04750F0575A9
:1002470010067511077512083005FDC205AF1312A8
:0702570002E36313FF80F1D5
:10028900E4FEEF60027E40ED6003430610C2AF8ECC
:1002990080E5A0541F44A0F5A08E8053A01FD2AFC3
:0102A9002232
:1002C900E4FEEF60027E40ED6003430610C2AF908A
:0902D900A000EEF053A01FD2AF0B
:0102E20022F9
:1002AA00EF1FAA0670011E4A60147C027D80D3EDFE
:0E02BA009400EC940040E9ED1D70F31C80F000
:0102C8002213
:1002E300C2AF8F80E5A0541F4480F5A08F8053A038
:0402F3001FD2AF2245
:0D030900C2AF908000EFF053A01FD2AF22D2
:10000300538EBF53890F758B18758DFCC28FD28E9B
:05001300D2ABD2AF22C8
:03001B0002001EC2
:10001E00C0E0C0F0C083C082C0D075D000C000C0A8
:10002E0001C002C003C004C005C006C007050AE532
:10003E000A70020509AE09FFE4FCFD7B607AEAF95D
:10004E00F8C31201BE7004F509F50AAE09AF0A7CB9
:10005E00007D0A120169ED4C7002D200AE09AF0AA2
:10006E007C007D32120169ED4C7002D201AE09AFF7
:10007E000A7C007D64120169ED4C7002D202AE0959
:10008E00AF0A7C007DC8120169ED4C7002D203AE3E
:10009E0009AF0A7C007DFA120169ED4C7002D204A0
:1000AE00AE09AF0A7C037DE8120169ED4C7002D2F5
:1000BE00051201D4D007D006D005D004D003D0024B
:0F00CE00D001D000D0D0D082D083D0F0D0E0329B
:1001D4007580FFE5A0541F44E0F5A053A01FE4F58B
:1001E40080E5A0541F44C0F5A0AF087401A8070817
:1001F4008002C333D8FCF58053A01F7580FFE5A0AF
:10020400541F44E0F5A0740B2508F8E690025E93B1
:10021400F4F58053A01F0508E508C394084003E4DF
:02022400F508DB
:0102260022B5
:0D031600C2AF908000E4F053A01FD2AF22D0
:030000000200DD1E
:0C00DD00787FE4F6D8FD75812002012434
:10016900BC000BBE0029EF8DF084FFADF022E4CC7A
:10017900F875F008EF2FFFEE33FEEC33FCEE9DEC43
:10018900984005FCEE9DFE0FD5F0E9E4CEFD22ED89
:10019900F8F5F0EE8420D21CFEADF075F008EF2FD3
:1001A900FFED33FD4007985006D5F0F222C398FDC4
:0501B9000FD5F0EA2261
:1001BE00EB9FF5F0EA9E42F0E99D42F0EC6480C8B8
:0601CE0064809845F02258
:1000E900020227E493A3F8E493A34003F68001F204
:1000F90008DFF48029E493A3F85407240CC8C33318
:10010900C4540F4420C8834004F456800146F6DFE6
:10011900E4800B01020408102040809002F7E47E7D
:10012900019360BCA3FF543F30E509541FFEE493DB
:10013900A360010ECF54C025E060A840B8E493A3A2
:10014900FAE493A3F8E493A3C8C582C8CAC583CACD
:10015900F0A3C8C582C8CAC583CADFE9DEE780BE85
:0103080000F4
:00000001FF
