:10062C0047001C23081306235954470015230813AD
:04063C00061120552E
:100B4300E4FEC297EF1392A3EFC313FFD2970EEE07
:030B5300B408EFF4
:010B5600227C
:030A9500A3E0FDDE
:100A9800C29300C29700D29300120B43AF05120B0A
:040AA80043C2932290
:10080A00E4FDC29300C29700D29300120B43E4FFA7
:10081A00C297EDC313FD30A3034480FDD2970FEFB7
:10082A00B408EDC29300C29700D29700C2A300D2C7
:04083A00A300AF0563
:01083E002297
:10071400E4FD7F8E120A9890001CE0FD7F8C120A83
:10072400987F88120A957F86120A95A3E0FD7F8A36
:10073400120A98A3E0FD7F84120A98A3E0FD7F8249
:10074400120A98A3E0FD7F80120A987D807F8E02B2
:020754000A9801
:100797007F8D12080A900015EFF07F8912080AA3CF
:1007A700EFF07F8712080AA3EFF07F8B12080AA3E6
:1007B700EFF07F8512080AA3EFF07F8312080AA3E0
:0B07C700EFF07F8112080AA3EFF02280
:100640004100230041002400410026004100290010
:10065000410025004100270042002A0000410028F7
:010660000099
:10095B0043B00FE5B0540FF4240E600F24FE600E6D
:10096B0024FC600D2407700C7F07227F06227F0575
:06097B00227F04227F0030
:010981002253
:1005590012095B900023EFF0E0FF900025E06FFEA9
:10056900EF5E900024F0FB900023E0FDF45E900024
:1005790026F0900025EDF0EB60159000287401F04D
:10058900900024E0900027F0E490002AF0A3F09076
:100599000028E0600E90002BE004F0700690002A1D
:1005A900E004F0900026E0600BE4900028F0900051
:1005B9002AF0A3F0D390002BE0942890002AE0942D
:0F05C900004006900027E08001E4900029F02216
:100ADA00538E7F5389F0438904E4F58AF58CC28DDD
:050AEA00D28CC2A9221C
:100B5700C28CAF8CEFFEAD8AED25E0FFEE33FE22AF
:040A6100D2A07F059B
:100A6500000000000000000000000000000000AED3
:060A7500071FEE70EB22EA
:0F0B7700D2A1120A61C2A17F05120A65C2A02293
:100A2A001208D9120A181209EFAD077F0112000342
:0C0A3A00C2A1120A61D2A17F05020A6568
:0208D900AD0769
:1008DB00E4FCC2A07F05120A65ED30E704D2A180CB
:1008EB0002C2A17F05120A65D2A0ED25E0FD7F05AE
:0A08FB00120A650CECB408DAC2A082
:0109050022CF
:1009EF00E4FC120A61ED25E0FD30A1034401FDC2D4
:0D09FF00A07F05120A650CECB408E7AF05F7
:010A0C0022C7
:0B0A0D001208D9120A18AF031208D912
:100A1800120A61A2A1E433FDC2A07F05120A65AFE4
:010A280005C8
:010A290022AA
:10000300C2A0EF24FF92A17F05120A65120A61C202
:08001300A0D2A17F05020A65DD
:100AAC00AB05AA07120B777FA01208D9120A18AF50
:070ABC0002120A0D020A3AC2
:020AEF00AB0753
:100AF100120B777FA0120A0D120B777FA1120A2A1F
:020B0100AF053E
:010B030022CF
:100B0400AB07120B777F901208D9120A187F401294
:050B14000A0D020A3A7F
:020B1900AB0728
:100B1B00120B777F90120A0D120B777F91120A2A14
:020B2B00AF0514
:010B2D0022A5
:080661004100360041003800A1
:10025500C2C4D2C2D2B5D2B4E5B0540F7E00D2C466
:10026500C2C2D2B5D2B4C4F8540FC868FFEEC454A4
:10027500F048FEE5B0540FFDEF4DD2C4D2C2C2B571
:10028500D2B4C4F8540FC868FFEEC454F048FEE574
:10029500B0540FFDEF4DD2C4D2C2D2B5C2B4C4F82A
:1002A500540FC868FFEEC454F048FEE5B0540FFD86
:1002B500EF4DF4FFEEF4FEEF8EF0120228037E0000
:1002C5000103760002036E000403660008035E0066
:1002D5001003560020034E004003460080033E01F4
:1002E5000003360200032E040003260800031E1037
:1002F5000003162000030E400003068000000003E3
:100305008690003E7404F0807D90003E7405F08078
:100315007590003E7406F0806D90003E7407F08085
:100325006590003E7408F0805D90003E7409F08091
:100335005590003E740AF0804D90003E740BF0809D
:100345004590003E740CF0803D90003E740DF080A9
:100355003590003E740EF0802D90003E740FF080B5
:100365002590003E7410F0801D90003E7411F080C1
:100375001590003E7412F0800D90003E7413F080CD
:0B03850005E490003EF090003EE0FF19
:01039000224A
:10098200120255900035EFF0E0FF900037E06FFE65
:10099200EF5E900036F0900035E0FCF45E90003897
:0709A200F0900037ECF02299
:0406690041003D000F
:100B2E00538EBF53890F758B18758DFCC28FD28E65
:050B3E00D2ABD2AF2292
:03001B0002075683
:10075600C0E0C0F0C083C082C0D075D000C000C069
:1007660001C002C003C004C005C006C00790003C1B
:10077600E004F01205D8D007D006D005D004D00387
:10078600D002D001D000D0D0D082D083D0F0D0E03B
:010796003230
:1008730090003DE0F4F580E5A0541F4480F5A053BB
:10088300A01FE4F580E5A0541F44A0F5A053A01FCA
:10089300120B2E90003CE0C3943240F7E4F01206B2
:0308A3007D80F065
:10067D00120559900024E06012FF75F00A84900075
:10068D002DF0EF75F00A84A3E5F0F0900026E06000
:10069D0012FF75F00A84900030F0EF75F00A84A314
:1006AD00E5F0F0900029E06012FF75F00A849000EB
:0C06BD0033F0EF75F00A84A3E5F0F022A2
:040A7B007F057E0075
:100A7F00EF1FAA0670011E4A600BE4FDEDC3940C34
:050A8F0050EE0D80F7A0
:010A9400223F
:0209D000A90775
:1009D200E4FBC294E9139294120A7BD294E9C31302
:0D09E200F90BEBB408EC7F057E00020A7FE4
:100A4600E4FBC294ECC313FCD2943094034480FCC0
:0A0A5600120A7B0BEBB408EAAF04B0
:010A60002273
:1009A900C200D2947F0C7E00120A7FC2947F507ECF
:1009B90000120A7FD2947F0A7E00120A7FA29492C3
:0609C90000120A7BA200EF
:0109CF002205
:1007D2001209A97FCC1209D07F441209D01209A9AB
:1007E2007FCC1209D07FBE1209D0120A46A9071285
:1007F2000A46EFFEE9FFFDAC06E4120131E4FBFA22
:070802007980783D12002609
:0108090022CC
:02093100AD0710
:10093300AF8DEFFEAC8BECFBAA06ED75F00AA42499
:1009430018FFE5F034FCFEAC02AD03C3EB9FEA9E57
:0709530040037F00227F0139
:01095A00227A
:100906003F065B4F666D7D077F6F777C395E797139
:100916000040761E7038375C733E783D6750376E00
:0B092600BF86DBCFE6EDFD87FFEF464C
:0F066D0048002D101010101010101041002C001C
:1005D800E4F580E5A0541F44C0F5A053A01F900087
:1005E8002CE0FF7401A807088002C333D8FCF5800B
:1005F800E5A0541F44C0F5A053A01F7580FF742DBB
:100608002FF582E43400F583E090090693F4F58031
:10061800E5A0541F44E0F5A053A01F90002CE0046F
:030628005407F084
:01062B0022AC
:0E0B86007F0890002D7410F0A3DFFC0205D84C
:100B6700538E7F5389F0E4F58AF58CC28DD28C229F
:10039100E4FFC29000000000000000000000000027
:1003A100000000000000000000000000000000004C
:1003B100000000000000000000000000000000003C
:1003C100000000000000000000000000000000002C
:1003D100000000000000000000000000000000001C
:1003E100000000000000000000000000000000000C
:1003F10000000000000000000000000000000000FC
:1004010000000000000000000000000000000000EB
:1004110000000000000000000000000000000000DB
:1004210000000000000000000000D2900000000069
:1004310000000000000000000000000000000000BB
:1004410000000000000000000000000000000000AB
:10045100000000000000000000000000000000009B
:10046100000000000000000000000000000000008B
:10047100000000000000000000000000000000007B
:10048100000000000000000000000000000000006B
:10049100000000000000000000000000000000005B
:1004A100000000000000000000000000000000004B
:1004B100000000000000000000000000000000003B
:0B04C10000000FEF64086003020393CB
:0104CC00220D
:1006C900120391120B67309107E58CC3945040F6E1
:1006D900C28CE58CC3944F40067C037DE78027AF2D
:1006E9008CEFFEAD8A7C00E42DFFEC3EFEAD07FCED
:1006F900E41201317B287A7E798C783C120026122B
:0A070900016AAC06AD07AF05AE04AF
:0107130022C3
:100AC300759850438E01438E0475D7C775D6FE4380
:070AD3008E10D2ACD2AF225D
:080B94008F993099FDC29922EE
:1008A600900039EBF0A3EAF0A3E9F0900039E0FB01
:1008B600A3E0FAA3E0F91201EB6017900039A3E474
:1008C60075F001120204A9F0FA1201EBFF120B9463
:0308D60080D922A4
:0300230002083F91
:10083F00C0E0C083C082C0D0309820C2989000140E
:10084F00E02400F582E43400F583E599F09000147C
:10085F00E004F0E0C394144002E4F0D0D0D082D092
:04086F0083D0E03220
:10002600EC4D6011E8497017ED33EC3304600DE4D4
:10003600FCFFFEFD22E933E8330470F80201D61214
:1000460001A158046009E4CC248150062850090215
:1000560001E02840030201DDC0E0EB4A7044B980AC
:1000660006D0E0FB0201CCEF4E701CBD8008EBFF12
:10007600EAFEE9FD80EBE98DF0A4FEE5F002010F52
:10008600E9CDF9EAFEEBFFEF89F0A4FCE5F0CE89B5
:10009600F0A42EFFE435F0CD89F0A42DFEE435F072
:1000A6008067EF4E7005BD80D780C3EF8BF0A4ACA0
:1000B600F0EE8BF0A42CFCE435F0F8EF8AF0A42CDB
:1000C600E5F038FCE433CB8DF0A42CFCE5F03BF8EE
:1000D600EE8AF0A42CFCE5F038F8E433CF89F0A4DE
:1000E6002CFCE5F038CF3400CE89F0A42FFFE5F0E4
:1000F6003EFEE433C98DF0A42EFEE5F039CD8AF03C
:10010600A42FFFE5F03EFEE43DFD33D0E0FB5007B3
:100116000BBB000F0201E0EC2CFCEF33FFEE33FECD
:06012600ED33FD0201B8FB
:10012C0075F020800E75F010800575F0087D007E4E
:10013C00007F003392D530D50312021AEC334010F5
:10014C00EF33FFEE33FEED33FDEC33FCD5F0ED2257
:0E015C00E5F0247EA2D513CC92E7CDCEFF2293
:10016A00EDD2E7CD33EC3392D524814006E4FFFE8D
:10017A00FDFC22FCE4CFCECDCC24E0501174FF80EC
:10018A00EDC3CC13CCCD13CDCE13CECF13CF047089
:07019A00F030D5DE02021A6D
:1001A100E9D2E7C933E833F892D5EDD2E7CD33ECA4
:0701B10033FC5002B2D5221D
:1001B800EC30E7100FBF000C0EBE00080DBD0004A8
:1001C8000BEB6014A2D5EB13FCED92E7FD2274FF54
:1001D800FCFDFEFF22E480F8A2D574FF13FC7D80AD
:0301E800E480EFC1
:030000000204CD2A
:0C04CD00787FE4F6D8FD7581200205144C
:1001EB00BB010689828A83E0225002E722BBFE0212
:0901FB00E32289828A83E4932245
:10020400A3F8E0C5F025F0F0E582158270021583AD
:06021400E0C838F0E8220A
:0E021A00C3E49FFFE49EFEE49DFDE49CFC22F5
:10022800D083D082F8E4937012740193700DA3A365
:1002380093F8740193F5828883E473740293B5F09C
:0D024800067403936860E9A3A3A3A380D804
:1004D900020873E493A3F8E493A34003F68001F2BE
:1004E90008DFF48029E493A3F85407240CC8C33324
:1004F900C4540F4420C8834004F456800146F6DFF3
:10050900E4800B010204081020408090062CE47E50
:10051900019360BCA3FF543F30E509541FFEE493E7
:10052900A360010ECF54C025E060A840B8E493A3AE
:10053900FAE493A3F8E493A3C8C582C8CAC583CAD9
:10054900F0A3C8C582C8CAC583CADFE9DEE780BE91
:01067C00007D
:00000001FF
