:100AC3003F065B4F666D7D077F6F777C395E79717B
:100AD3000040761E7038375C733E783D6750376E42
:100AE300BF86DBCFE6EDFD87FFEF46414141535320
:070AF30053535353414141ED
:100A40000244000008471010101010101010C102CE
:100A500001410001460001220001230001240001A0
:100A60002500012637012700012800012900012A5D
:010A7000374E
:1006F500E4F54F7550FFF551F552FDFF120BFE7FE6
:10070500FF120D5F120D35D3E51C944CE51B941DAE
:1007150040051208E780F03004FDC20475470F75E7
:100725004811754910C3E5409410E53F9427400FE3
:10073500AE3FAF407C277D101202E38F4A800375E0
:100745004A10C3E54094E8E53F9403401CAE3FAF33
:10075500407C277D101202E37E037FE8CFCDCFCE0C
:10076500CCCE1202E38F4B8003754B10C3E540944A
:1007750064E53F9400401CAE3FAF407C037DE8122A
:1007850002E37E007F64CFCDCFCECCCE1202E38FC5
:100795004C8003754C10C3E540940AE53F94004036
:1007A5001CAE3FAF407C007D641202E37E007F0AF1
:1007B500CFCDCFCECCCE1202E38F4D8003754D1039
:1007C500AE3FAF407C007D0A1202E38D4E02071C4E
:100BFE00E4FEEF60027E40ED6003430610C2AF8E4E
:100C0E0080E5A0541F44A0F5A08E8053A01FD2AF44
:010C1E0022B3
:100CD100E4FEEF60027E40ED6003430610C2AF9078
:090CE100A000EEF053A01FD2AFF9
:010CEA0022E7
:100C1F00EF1FAA0670011E4A60147C027D80D3ED7F
:0E0C2F009400EC940040E9ED1D70F31C80F081
:010C3D002294
:100D5F00C2AF8F80E5A0541F4480F5A08F8053A0B1
:040D6F001FD2AF22BE
:0D0DB900C2AF908000EFF053A01FD2AF2218
:100D3500538EBF53890F758B18758DFCC28FD28E5C
:050D4500D2ABD2AF2289
:03001B000205F5E6
:1005F500C0E0C0F0C083C082C0D075D000C000C0CC
:1006050001C002C003C004C005C006C0070545E51A
:100615004570020544AE44FFE4FCFD7B607AEAF9CF
:10062500F8C31203467004F544F545AE44AF457C66
:10063500007D0A1202E3ED4C7002D200AE44AF45D4
:100645007C007D321202E3ED4C7002D201AE44AF64
:10065500457C007D641202E3ED4C7002D203AE448A
:10066500AF457C007DC81202E3ED4C7002D204AEAA
:1006750044AF457C007DFA1202E3ED4C7002D205D1
:10068500AE44AF457C037DE81202E3ED4C7002D227
:1006950006120960120003AE44AF457C037DE812E3
:1006A50002E3ED4C7005120D4A802AAE44AF457C3D
:1006B500037DE81202E3BC011CBDF419C28CAF8CAA
:1006C500EFFEAD8A7C00E42DFFEC3EFEEF25E0F564
:1006D50040EE33F53FD007D006D005D004D003D087
:1006E50002D001D000D0D0D082D083D0F0D0E0327B
:100960007580FFE5A0541F44E0F5A053A01FE4F5F7
:1009700080E5A0541F44C0F5A0AF227401A8070869
:100980008002C333D8FCF58053A01F7580FFE5A01B
:10099000541F44E0F5A074472522F8E6900AC3935B
:1009A000F4F58053A01F0522E522C394084003E418
:0209B000F5222E
:0109B2002222
:0D0DC600C2AF908000E4F053A01FD2AF2216
:1008610043B00FE5B0540FFF640F6066E523C394F6
:10087100C850020523E523C3940550037FFF22E5F9
:100881002364057037752401752637EF24F9601A42
:1008910024FC601124FE600814701475250780196A
:1008A1007525068014752505800F752504800A7548
:1008B10025FFE4F524F526F523AF2522E526600C76
:1008C100D5260C752637E525240AFF227526377FA4
:1008D100FF22E4F523E524B40109E4F524E5252408
:0508E10014FF227FFF5F
:0108E60022EF
:1004D70075B00FC2C2C2C4E5B0540FFF640F7003FA
:1004E7000205E1E527C394C850020527E527C39411
:1004F7000550037FFF22E527640560030205CB75DE
:100507002801752A37E5B0540FFF75B0F0D2C2D273
:10051700C4E5B054F0FE30C20543064080035306DD
:10052700BF30C405430680800353067FEE4207EFC2
:1005370012035C056E7705737B05787D057D7E0567
:1005470082B70587BB058CBD0591BE0596D7059B70
:10055700DB05A0DD05A5DE05AAE705AFEB05B4EDD4
:1005670005B9EE000005BE7529048055752905807B
:1005770050752906804B75290780467529088041E3
:10058700752909803C75290A803775290B803275D2
:10059700290C802D75290D802875290E8023752932
:1005A7000F801E752910801975291180147529125D
:1005B700800F752913800A7529FFE4F528F52AF5B8
:1005C70027AF2922E52A600CD52A0C752A37E52999
:1005D7002414FF22752A377FFF22E4F527E528B484
:0D05E7000109E4F528E5292428FF227FFF03
:0105F40022E4
:10000300759850438E01438E0475D73C75D6F643DD
:070013008E10D2ACD2AF2227
:030023000209FBD4
:0B09FB00C0E0C0D075D000C000C007F5
:100A060030982EC298742B2541F8A699742B25414F
:100A1600F8E6F5990541E541D3941340117F147822
:100A26002BE4F608DFFC7541007546008003754629
:010A360005BA
:090A3700D007D000D0D0D0E0328D
:10038200E4FFC2900FBF08FA000000000000000066
:10039200000000000000000000000000000000005B
:1003A200000000000000000000000000000000004B
:1003B200000000000000000000000000000000003B
:1003C200000000000000000000000000000000002B
:1003D200000000000000000000000000000000001B
:1003E200000000000000000000000000000000000B
:1003F20000000000000000000000000000000000FB
:1004020000000000000000000000000000000000EA
:1004120000000000000000000000000000000000DA
:1004220000000000000000000000000000D2900068
:1004320000000000000000000000000000000000BA
:1004420000000000000000000000000000000000AA
:10045200000000000000000000000000000000009A
:10046200000000000000000000000000000000008A
:10047200000000000000000000000000000000007A
:10048200000000000000000000000000000000006A
:10049200000000000000000000000000000000005A
:1004A200000000000000000000000000000000004A
:1004B200000000000000000000000000000000003A
:1004C200000000000000000000000000000000002A
:0404D2000000000026
:0104D6002203
:100D9A00538E7F5389F0E4F58AF58CC28DD28C226A
:1009B300120382120D9A309107E58CC3943340F6EB
:1009C300C28CE58CC3943340077542037543E72219
:1009D300AF8CEFFEAD8A7C00E42DFFEC3EFEAD074D
:1009E300FCE41202297B967A43798B783C12011E30
:0709F3001202628E428F43E5
:0109FA0022DA
:100D4A00538E7F5389F0438904E4F58AF58CC28D6A
:050D5A00D28CC2A922A9
:100A7100070F2308130623595407082308130611E7
:020A81002055FE
:100D8700E4FEC297EF1392A3EFC313FFD2970EBEF1
:020D970008F062
:010D99002237
:100D7300C29300C29700D29300120D87AF05120DE4
:040D830087C293226E
:100AFA00E4FDC29300C29700D29300120D87E4FF6F
:100B0A00C297EDC313FD30A303430580D2970FBFED
:100B1A0008EEC29300C29700D29700C2A300D2A3E4
:030B2A0000AF0514
:010B2D0022A5
:100A8400E4FD7F8E120D73AD0F7F8C120D73AD10CC
:100A94007F88120D73AD117F86120D73AD127F8A9C
:100AA400120D73AD137F84120D73AD147F82120D7A
:0F0AB40073AD157F80120D737D807F8E020D73E1
:100B2E007F8D120AFA8F087F89120AFA8F097F8742
:100B3E00120AFA8F0A7F8B120AFA8F0B7F85120A1E
:100B4E00FA8F0C7F83120AFA8F0D7F81120AFA8FA9
:020B5E000E2265
:040DD300D2A07F0526
:080DD70000AE071FEE70F922C7
:0F0DAA00D2A1120DD3C2A17F05120DD7C2A02274
:0C0DDF00C2A1120DD3D2A17F05020DD7D6
:070C5D00120C99AD07D2074C
:100C6400C2A0A20792A17F05120DD7120DD3C2A074
:070C7400D2A17F05020DD79C
:0A0CB600AB07120DAA7F90120B602D
:100CC000120DD3A2A19208C2A07F05120DD7A208CF
:010CD0002201
:020B6000AD07DF
:100B6200E4FCC2A07F05120DD7ED30E704D2A180CC
:100B720002C2A17F05120DD7D2A0ED25E0FD7F05AF
:090B8200120DD70CBC08DBC2A067
:010B8B002247
:100C9900E4FC120DD3ED25E0FD30A103430501C2AB
:0C0CA900A07F05120DD70CBC08E8AF05B9
:010CB500221C
:100BDC00AB05AA07120DAA7FA0120B60120CC0AFB6
:100BEC0002120B60120CC0AF03120B60120CC0028D
:020BFC000DDF0B
:020B8C00AB07B5
:100B8E00120DAA7FA0120B60120CC0AF03120B60E5
:100B9E00120CC0120DAA7FA1120B60120CC0120C07
:060BAE005D120DDFAF0532
:010BB400221E
:100D1F00120CB67F40120B60120CC0AF03120B60A7
:060D2F00120CC0020DDFF2
:100C3E00120CB6AF03120B60120CC0120DAA7F91EC
:0E0C4E00120B60120CC0120C5D120DDFAF0510
:010C5C002275
:040CEB007F057E0003
:100CEF00EF1FAA0670011E4A600BE4FDEDC3940CC2
:050CFF0050EE0D80F72E
:010D040022CC
:020C7B00A907C7
:100C7D00E4FBC294E9139294120CEBD294E9C313E2
:0C0C8D00F90BBB08ED7F057E00020CEFA8
:100D0500E4FBC294ECC313FCD294309403430480F7
:090D1500120CEB0BBB08EBAF0460
:010D1E0022B2
:100BB500C209D2947F0C7E00120CEFC2947F507E46
:100BC50000120CEFD2947F0A7E00120CEFA29492D1
:060BD50009120CEBA2095D
:010BDB0022F7
:1008E700120BB57FCC120C7B7F44120C7B7F147EDE
:1008F70000120CEF120BB57FCC120C7B7FBE120CD3
:100907007B120D05A907120D05AD07ED7F00FEE966
:100917002FFFE43EFEED30E712751A01EFF4FFEE0C
:10092700F4FEEF2401FFE43EFE8003E4F51AAD0771
:10093700AC06E4120229E4FBFA79C8784012011EDA
:10094700E4FBFAF9783F12002D8F198E188D178C5A
:08095700161202628E1B8F1CB8
:01095F002275
:100026000202CEE86480F8E933E83360110460F038
:10003600ED33EC337009E8FCE9FDEAFEEBFF220440
:1000460060DED3EB9FEA9EE99DE8C2E78CF0C2F73B
:1000560095F0400CE8CCF8E9CDF9EACEFAEBCFFB07
:1000660012029985D0F05804700320D5B3E80470C5
:10007600075002B2D50202D892D5EC0460F7E4CC60
:10008600C0E0C398F8603B94186008400DD0E0FBD0
:100096000202B0E4FBFAC9FC8028E830E406E4C9B1
:1000A600FBE4CAFCE830E305E4C9CACBFCE8540724
:1000B6006010F8C3E913F9EA13FAEB13FBEC13FC2F
:1000C600D8F130F52FC3E49CFCEF9BFFEE9AFEEDD2
:1000D60099FDD0E0FBEF4E4D4C701222DB0302027D
:1000E600D5EC2CFCEF33FFEE33FEED33FDED30E7C0
:1000F600EB0202B0EF2BFFEE3AFEED39FDD0E0FB4E
:1001060050130BBB00030202D8ED13FDEE13FEEFF6
:0801160013FFEC13FC0202B020
:10011E00EC4D6011E8497017ED33EC3304600DE4DB
:10012E00FCFFFEFD22E933E8330470F80202CE1222
:10013E00029958046009E4CC248150062850090223
:10014E0002D82840030202D5C0E0EB4A7044B980C1
:10015E0006D0E0FB0202C4EF4E701CBD8008EBFF20
:10016E00EAFEE9FD80EBE98DF0A4FEE5F002020760
:10017E00E9CDF9EAFEEBFFEF89F0A4FCE5F0CE89BC
:10018E00F0A42EFFE435F0CD89F0A42DFEE435F079
:10019E008067EF4E7005BD80D780C3EF8BF0A4ACA7
:1001AE00F0EE8BF0A42CFCE435F0F8EF8AF0A42CE2
:1001BE00E5F038FCE433CB8DF0A42CFCE5F03BF8F5
:1001CE00EE8AF0A42CFCE5F038F8E433CF89F0A4E5
:1001DE002CFCE5F038CF3400CE89F0A42FFFE5F0EB
:1001EE003EFEE433C98DF0A42EFEE5F039CD8AF043
:1001FE00A42FFFE5F03EFEE43DFD33D0E0FB5007BB
:10020E000BBB000F0202D8EC2CFCEF33FFEE33FEDB
:06021E00ED33FD0202B009
:1002240075F020800E75F010800575F0087D007E55
:10023400007F003392D530D503120338EC334010DD
:10024400EF33FFEE33FEED33FDEC33FCD5F0ED225E
:0E025400E5F0247EA2D513CC92E7CDCEFF229A
:10026200EDD2E7CD33EC3392D524814006E4FFFE94
:10027200FDFC22FCE4CFCECDCC24E0501174FF80F3
:10028200EDC3CC13CCCD13CDCE13CECF13CF047090
:07029200F030D5DE02033855
:10029900E9D2E7C933E833F892D5EDD2E7CD33ECAB
:0702A90033FC5002B2D52224
:1002B000EC30E7100FBF000C0EBE00080DBD0004AF
:1002C0000BEB6014A2D5EB13FCED92E7FD2274FF5B
:1002D000FCFDFEFF22E480F8A2D574FF13FC7D80B4
:0302E000E480EFC8
:030000000207D51F
:0C07D500787FE4F6D8FD75815302081C03
:1002E300BC000BBE0029EF8DF084FFADF022E4CCFF
:1002F300F875F008EF2FFFEE33FEEC33FCEE9DECC8
:10030300984005FCEE9DFE0FD5F0E9E4CEFD22ED0D
:10031300F8F5F0EE8420D21CFEADF075F008EF2F57
:10032300FFED33FD4007985006D5F0F222C398FD48
:050333000FD5F0EA22E5
:0E033800C3E49FFFE49EFEE49DFDE49CFC22D6
:10034600EB9FF5F0EA9E42F0E99D42F0EC6480C82E
:0603560064809845F022CE
:10035C00D083D082F8E4937012740193700DA3A330
:10036C0093F8740193F5828883E473740293686044
:06037C00EFA3A3A380DF44
:1007E1000206F5E493A3F8E493A34003F68001F233
:1007F10008DFF48029E493A3F85407240CC8C33319
:10080100C4540F4420C8834004F456800146F6DFE7
:10081100E4800B0102040810204080900A40E47E2D
:10082100019360BCA3FF543F30E509541FFEE493DC
:10083100A360010ECF54C025E060A840B8E493A3A3
:10084100FAE493A3F8E493A3C8C582C8CAC583CACE
:10085100F0A3C8C582C8CAC583CADFE9DEE780BE86
:010A83000072
:00000001FF
