:1004B1003F065B4F666D7D077F6F777C395E797193
:1004C1000040761E7038375C733E783D6750376E5A
:0B04D100BF86DBCFE6EDFD87FFEF46A6
:1004DC000211000008131010101010101010010859
:1004EC0000010900010A00010B00010C37010D008D
:0904FC00010E00010F0001103790
:10039E00E4F51B751CFFFDFF1205557FFF12064C81
:1003AE00120637C2AFE4FF1205068F1BE51BC3947E
:1003BE0064400AE51B75F06484F518800375181007
:1003CE00E51BC3940A4010E51B75F06484E5F075D7
:1003DE00F00A84F5198003751910E51B75F00A846F
:1003EE0085F01A051BAD1BE4FF1205EAD2AF80FEA5
:10055500E4FEEF60027E40ED6003430610C2AF8EFD
:1005650080E5A0541F44A0F5A08E8053A01FD2AFF4
:010575002263
:1005D000E4FEEF60027E40ED6003430610C2AF9080
:0905E000A000EEF053A01FD2AF01
:0105E90022EF
:10057600EF1FAA0670011E4A60147C027D80D3ED2F
:0E0586009400EC940040E9ED1D70F31C80F031
:010594002244
:10064C00C2AF8F80E5A0541F4480F5A08F8053A0CB
:04065C001FD2AF22D8
:0D06A500C2AF908000EFF053A01FD2AF2233
:10063700538EBF53890F758B18758DFCC28FD28E61
:05064700D2ABD2AF228E
:03001B0002013CA3
:10013C00C0E0C0F0C083C082C0D075D000C000C089
:10014C0001C002C003C004C005C006C0070512E50B
:10015C001270020511AE11FFE4FCFD7B607AEAF926
:10016C00F8C31202507004F511F512AE11AF127CE7
:10017C00007D0A1201FBED4C7002D200AE11AF12E1
:10018C007C007D321201FBED4C7002D201AE11AF3E
:10019C00127C007D641201FBED4C7002D202AE1198
:1001AC00AF127C007DC81201FBED4C7002D203AE85
:1001BC0011AF127C007DFA1201FBED4C7002D204DF
:1001CC00AE11AF127C037DE81201FBED4C7002D234
:1001DC00051203FED007D006D005D004D003D00200
:0F01EC00D001D000D0D0D082D083D0F0D0E0327C
:1003FE007580FFE5A0541F44E0F5A053A01FE4F55F
:10040E0080E5A0541F44C0F5A0AF087401A80708EA
:10041E008002C333D8FCF58053A01F7580FFE5A082
:10042E00541F44E0F5A074132508F8E69004B19328
:10043E00F4F58053A01F0508E508C394084003E4B3
:02044E00F508AF
:010450002289
:0D06B200C2AF908000E4F053A01FD2AF2231
:1003180043B00FE5B0540FFF640F6066E509C3945E
:10032800C850020509E509C3940550037FFF22E57B
:100338000964057037750A01750C37EF24F9601ADE
:1003480024FC601124FE6008147014750B078019D2
:10035800750B068014750B05800F750B04800A75E4
:100368000BFFE4F50AF50CF509AF0B22E50C600C60
:10037800D50C0C750C37E50B240AFF22750C377F5A
:10038800FF22E4F509E50AB40109E4F50AE50B24BE
:0503980014FF227FFFAD
:01039D00223D
:10001E0075B00FC2C2C2C4E5B0540FFF640F7003B7
:10002E00020128E50DC394C85002050DE50DC394D9
:10003E000550037FFF22E50D640560030201127572
:10004E000E01751037E5B0540FFF75B0F0D2C2D265
:10005E00C4E5B054F0FE30C205430640800353069B
:10006E00BF30C405430680800353067FEE4207EF80
:10007E0012026600B57700BA7B00BF7D00C47E0019
:10008E00C9B700CEBB00D3BD00D8BE00DDD700E29D
:10009E00DB00E7DD00ECDE00F1E700F6EB00FBED48
:1000AE000100EE00000105750F048055750F0580E7
:1000BE0050750F06804B750F078046750F088041EF
:1000CE00750F09803C750F0A8037750F0B803275DE
:1000DE000F0C802D750F0D8028750F0E8023750F58
:1000EE000F801E750F108019750F118014750F1269
:1000FE00800F750F13800A750FFFE4F50EF510F5DE
:10010E000DAF0F22E510600CD5100C751037E50FF2
:10011E002414FF227510377FFF22E4F50DE50EB48F
:0D012E000109E4F50EE50F2428FF227FFFF4
:01013B0022A1
:10067400E4FEC297EF1392A3EFC313FFD2970EBE0B
:0206840008F07C
:010686002251
:10066000C29300C29700D29300120674AF0512061F
:0406700074C293229B
:10045100E4FDC29300C29700D29300120674E4FF38
:10046100C297EDC313FD30A303430580D2970FBF9D
:1004710008EEC29300C29700D29700C2A300D2A394
:0304810000AF05C4
:010484002255
:0406BF00D2A07F0541
:0806C30000AE071FEE70F922E2
:0F068700D2A11206BFC2A17F051206C3C2A022D4
:0C06CB00C2A11206BFD2A17F050206C327
:10000300C2A0A20792A17F051206C31206BFC2A017
:07001300D2A17F050206C324
:08061E001206877FA01204857B
:100626001206BFA2A19207C2A07F051206C3A207A7
:0106360022A1
:02048500AD07C1
:10048700E4FCC2A07F051206C3ED30E704D2A180C9
:1004970002C2A17F051206C3D2A0ED25E0FD7F05AC
:0904A7001206C30CBC08DBC2A064
:0104B0002229
:1005B300E4FC1206BFED25E0FD30A103430501C2B3
:0C05C300A07F051206C30CBC08E8AF05C1
:0105CF002209
:1005EA00AB05AA0712061EAF02120485120626AF31
:0A05FA00031204851206260206CB48
:02050600AB0741
:1005080012061EAF031204851206261206877FA163
:100518001204851206261205B3AD07D2071200038E
:050528001206CBAF0537
:01052D0022AB
:040696007F057E005E
:0B069A00EF1FAC0670011E4C70F62232
:02059500AD07B0
:10059700E4FBC294ED139294120696D294EDC31322
:0C05A700FD0BBB08ED7F057E0002069AEC
:10060400E4FBC294EDC313FDD294309403430580FC
:090614001206960BBB08EBAF05C2
:01061D0022BA
:10052E00C206D2947F0C7E0012069AC2947F507E31
:10053E000012069AD2947F0A7E0012069AA2949214
:06054E0006120696A2064B
:010554002284
:0300000002028C6D
:0C028C00787FE4F6D8FD7581200202D3D3
:1001FB00BC000BBE0029EF8DF084FFADF022E4CCE8
:10020B00F875F008EF2FFFEE33FEEC33FCEE9DECB0
:10021B00984005FCEE9DFE0FD5F0E9E4CEFD22EDF6
:10022B00F8F5F0EE8420D21CFEADF075F008EF2F40
:10023B00FFED33FD4007985006D5F0F222C398FD31
:05024B000FD5F0EA22CE
:10025000EB9FF5F0EA9E42F0E99D42F0EC6480C825
:0602600064809845F022C5
:10026600D083D082F8E4937012740193700DA3A327
:1002760093F8740193F5828883E47374029368603B
:06028600EFA3A3A380DF3B
:1002980002039EE493A3F8E493A34003F68001F2DB
:1002A80008DFF48029E493A3F85407240CC8C33367
:1002B800C4540F4420C8834004F456800146F6DF36
:1002C800E4800B01020408102040809004DCE47EE6
:1002D800019360BCA3FF543F30E509541FFEE4932B
:1002E800A360010ECF54C025E060A840B8E493A3F2
:1002F800FAE493A3F8E493A3C8C582C8CAC583CA1D
:10030800F0A3C8C582C8CAC583CADFE9DEE780BED4
:0105050000F5
:00000001FF
