:04026B000208000085
:1001F200E4F50AFDFF1201D17FFF12024A12000349
:0F0202003005FDC205AF0A12024A630AFF80F100
:1001D100E4FEEF60027E40ED6003430610C2AF8E85
:1001E10080E5A0541F44A0F5A08E8053A01FD2AF7C
:0101F10022EB
:10023000E4FEEF60027E40ED6003430610C2AF9023
:09024000A000EEF053A01FD2AFA4
:010249002292
:10021100EF1FAA0670011E4A60147C027D80D3ED97
:0E0221009400EC940040E9ED1D70F31C80F099
:01022F0022AC
:10024A00C2AF8F80E5A0541F4480F5A08F8053A0D1
:04025A001FD2AF22DE
:0D025E00C2AF908000EFF053A01FD2AF227E
:10000300538EBF53890F758B18758DFCC28FD28E9B
:05001300D2ABD2AF22C8
:03001B0002001EC2
:10001E00C0E0C0F0C083C082C0D075D000C000C0A8
:10002E0001C002C003C004C005C006C0070509E533
:10003E000970020508AE08FFE4FCFD7B607AEAF960
:10004E00F8C31201BB7004F508F509AE08AF097CC0
:10005E00007D0A120166ED4C7002D200AE08AF09A7
:10006E007C007D32120166ED4C7002D201AE08AFFB
:10007E00097C007D64120166ED4C7002D202AE085E
:10008E00AF097C007DC8120166ED4C7002D203AE42
:10009E0008AF097C007DFA120166ED4C7002D204A5
:1000AE00AE08AF097C037DE8120166ED4C7002D2FA
:1000BE0005D007D006D005D004D003D002D001D091
:0C00CE0000D0D0D082D083D0F0D0E0323F
:030000000200DA21
:0C00DA00787FE4F6D8FD7581200201213A
:10016600BC000BBE0029EF8DF084FFADF022E4CC7D
:10017600F875F008EF2FFFEE33FEEC33FCEE9DEC46
:10018600984005FCEE9DFE0FD5F0E9E4CEFD22ED8C
:10019600F8F5F0EE8420D21CFEADF075F008EF2FD6
:1001A600FFED33FD4007985006D5F0F222C398FDC7
:0501B6000FD5F0EA2264
:1001BB00EB9FF5F0EA9E42F0E99D42F0EC6480C8BB
:0601CB0064809845F0225B
:1000E6000201F2E493A3F8E493A34003F68001F23D
:1000F60008DFF48029E493A3F85407240CC8C3331B
:10010600C4540F4420C8834004F456800146F6DFE9
:10011600E4800B010204081020408090026BE47E0C
:10012600019360BCA3FF543F30E509541FFEE493DE
:10013600A360010ECF54C025E060A840B8E493A3A5
:10014600FAE493A3F8E493A3C8C582C8CAC583CAD0
:10015600F0A3C8C582C8CAC583CADFE9DEE780BE88
:01026F00008E
:00000001FF
