:1008C9003F065B4F666D7D077F6F777C395E797177
:1008D9000040761E7038375C733E783D6750376E3E
:1008E900BF86DBCFE6EDFD87FFEF4641414153531C
:0708F90053535353414141E9
:100934000240000008431010101010101010C102E3
:10094400013F0001420001220001230001240001B3
:100954002500012637012700012800012900012A6A
:01096400375B
:10038200E4F50F7510FFF511F512FDFF120A047F57
:10039200FF120B50120B3B3000FDC200E5426070B1
:1003A2001542E542706AE53F6406704ED202F50FCF
:1003B200742B250FF8E6FFE50F9008F4936F6002A7
:1003C200C202050FE50FB406E73002077D01E4FF24
:1003D200120A04D202E4F50F742B250FF8E6FFE5AA
:1003E2000F9008FA936F6002C202050FE50FB40680
:1003F200E7300206E4FDFF120A04E4F50F742B2530
:100402000FF8E4F6050FE50FB414F2E4F53FF542F8
:100412001207B8C3E50E94E8E50D9403401CAE0D37
:10042200AF0E7C277D101202E37E037FE8CFCDCF93
:10043200CECCCE1202E38F438003754310AE0DAFD4
:100442000E7C037DE81202E37E007F64CFCDCFCE27
:10045200CCCE1202E3EF2420F544AE0DAF0E7C00A9
:100462007D641202E37E007F0ACFCDCFCECCCE12C6
:1004720002E38F45AE0DAF0E7C007D0A1202E38DC2
:10048200467F01120A447F01120A447F01120A4484
:100492008F11E51175F06484F548E51175F06484F7
:1004A200E5F075F00A84F549E51175F00A8485F0E6
:0404B2004A0203995E
:100A0400E4FEEF60027E40ED6003430610C2AF8E49
:100A140080E5A0541F44A0F5A08E8053A01FD2AF40
:010A240022AF
:100AD700E4FEEF60027E40ED6003430610C2AF9074
:090AE700A000EEF053A01FD2AFF5
:010AF00022E3
:100A2500EF1FAA0670011E4A60147C027D80D3ED7B
:0E0A35009400EC940040E9ED1D70F31C80F07D
:010A43002290
:100B5000C2AF8F80E5A0541F4480F5A08F8053A0C2
:040B60001FD2AF22CF
:0D0B9A00C2AF908000EFF053A01FD2AF2239
:100B3B00538EBF53890F758B18758DFCC28FD28E58
:050B4B00D2ABD2AF2285
:03001B000205D407
:1005D400C0E0C0F0C083C082C0D075D000C000C0ED
:1005E40001C002C003C004C005C006C0070541E540
:1005F4004170020540AE40FFE4FCFD7B607AEAF9FD
:10060400F8C31203467004F540F541AE40AF417C97
:10061400007D0A1202E3ED4C7002D200AE40AF41FD
:100624007C007D321202E3ED4C7002D201AE40AF89
:10063400417C007D641202E3ED4C7002D203AE40B3
:10064400AF417C007DC81202E3ED4C7002D204AECF
:1006540040AF417C007DFA1202E3ED4C7002D205FA
:10066400AE40AF417C037DE81202E3ED4C7002D250
:1006740006120831D3E50E944CE50D941D40051285
:1006840007B880F0120003D007D006D005D004D0FC
:1006940003D002D001D000D0D0D082D083D0F0D00B
:0206A400E03242
:100831007580FFE5A0541F44E0F5A053A01FE4F527
:1008410080E5A0541F44C0F5A0AF227401A8070899
:100851008002C333D8FCF58053A01F7580FFE5A04B
:10086100541F44E0F5A074432522F8E69008C9938B
:10087100F4F58053A01F0522E522C394084003E448
:02088100F5225E
:010883002252
:0D0BA700C2AF908000E4F053A01FD2AF2237
:1007320043B00FE5B0540FFF640F6066E523C39426
:10074200C850020523E523C3940550037FFF22E529
:100752002364057037752401752637EF24F9601A72
:1007620024FC601124FE600814701475250780199A
:100772007525068014752505800F752504800A7578
:1007820025FFE4F524F526F523AF2522E526600CA6
:10079200D5260C752637E525240AFF227526377FD4
:1007A200FF22E4F523E524B40109E4F524E5252438
:0507B20014FF227FFF8F
:0107B700221F
:1004B60075B00FC2C2C2C4E5B0540FFF640F70031B
:1004C6000205C0E527C394C850020527E527C39453
:1004D6000550037FFF22E527640560030205AA7520
:1004E6002801752A37E5B0540FFF75B0F0D2C2D295
:1004F600C4E5B054F0FE30C20543064080035306FF
:10050600BF30C405430680800353067FEE4207EFE3
:1005160012035C054D7705527B05577D055C7E050C
:1005260061B70566BB056BBD0570BE0575D7057A57
:10053600DB057FDD0584DE0589E7058EEB0593ED9A
:100546000598EE0000059D752904805575290580DE
:1005560050752906804B7529078046752908804104
:10056600752909803C75290A803775290B803275F3
:10057600290C802D75290D802875290E8023752953
:100586000F801E752910801975291180147529127E
:10059600800F752913800A7529FFE4F528F52AF5D9
:1005A60027AF2922E52A600CD52A0C752A37E529BA
:1005B6002414FF22752A377FFF22E4F527E528B4A5
:0D05C6000109E4F528E5292428FF227FFF24
:0105D3002205
:10000300759850438E01438E0475D73C75D6F643DD
:070013008E10D2ACD2AF2227
:030023000208844C
:0B088400C0E0C0D075D000C000C0076D
:10088F0030982EC298742B253FF8A699742B253FCC
:10089F00F8E6F599053FE53FD3941340117F14789F
:1008AF002BE4F608DFFC753F0075420080037542AC
:0108BF000533
:0908C000D007D000D0D0D0E03206
:100B7800E4FEC297EF1392A3EFC313FFD2970EBE02
:020B880008F073
:010B8A002248
:100B6400C29300C29700D29300120B78AF05120B08
:040B740078C293228E
:10090000E4FDC29300C29700D29300120B78E4FF7B
:10091000C297EDC313FD30A303430580D2970FBFE9
:1009200008EEC29300C29700D29700C2A300D2A3E0
:0309300000AF0510
:0109330022A1
:040BB400D2A07F0547
:080BB80000AE071FEE70F922E8
:0F0B8B00D2A1120BB4C2A17F05120BB8C2A022D7
:0C0BC000C2A1120BB4D2A17F05020BB839
:070A6300120A9FAD07D20843
:100A6A00C2A0A20892A17F05120BB8120BB4C2A0B1
:070A7A00D2A17F05020BB8B9
:0A0ABC00AB07120B8B7F9012096646
:100AC600120BB4A2A19208C2A07F05120BB8A2080D
:010AD60022FD
:02096600AD07DB
:10096800E4FCC2A07F05120BB8ED30E704D2A180E9
:1009780002C2A17F05120BB8D2A0ED25E0FD7F05CC
:09098800120BB80CBC08DBC2A084
:010991002243
:100A9F00E4FC120BB4ED25E0FD30A103430501C2C8
:0C0AAF00A07F05120BB80CBC08E8AF05D6
:010ABB002218
:1009E200AB05AA07120B8B7FA0120966120AC6AFCB
:1009F20002120966120AC6AF03120966120AC60279
:020A02000BC027
:02099200AB07B1
:10099400120B8B7FA0120966120AC6AF03120966F6
:1009A400120AC6120B8B7FA1120966120AC6120A1A
:0609B40063120BC0AF0549
:0109BA00221A
:100B2500120ABC7F40120966120AC6AF0312096693
:060B3500120AC6020BC00B
:100A4400120ABCAF03120966120AC6120B8B7F91FD
:0E0A5400120966120AC6120A63120BC0AF0521
:010A62002271
:040AF1007F057E00FF
:100AF500EF1FAA0670011E4A600BE4FDEDC3940CBE
:050B050050EE0D80F729
:010B0A0022C8
:020A8100A907C3
:100A8300E4FBC294E9139294120AF1D294E9C313DA
:0C0A9300F90BBB08ED7F057E00020AF5A0
:100B0B00E4FBC294ECC313FCD294309403430480F3
:090B1B00120AF10BBB08EBAF0458
:010B240022AE
:1009BB00C208D2947F0C7E00120AF5C2947F507E3F
:1009CB0000120AF5D2947F0A7E00120AF5A29492C5
:0609DB0008120AF1A20857
:0109E10022F3
:1007B8001209BB7FCC120A817F44120A817F147E02
:1007C80000120AF51209BB7FCC120A817FBE120AF9
:1007D80081120B0BA907120B0BAD07ED7F00FEE989
:1007E8002FFFE43EFEED30E712750C01EFF4FFEE4B
:1007F800F4FEEF2401FFE43EFE8003E4F50CAD07B0
:10080800AC06E4120229E4FBFA79C8784012011E0A
:10081800E4FBFAF9783F12002D8F0B8E0A8D098CB4
:08082800081202628E0D8F0E12
:0108300022A5
:100026000202CEE86480F8E933E83360110460F038
:10003600ED33EC337009E8FCE9FDEAFEEBFF220440
:1000460060DED3EB9FEA9EE99DE8C2E78CF0C2F73B
:1000560095F0400CE8CCF8E9CDF9EACEFAEBCFFB07
:1000660012029985D0F05804700320D5B3E80470C5
:10007600075002B2D50202D892D5EC0460F7E4CC60
:10008600C0E0C398F8603B94186008400DD0E0FBD0
:100096000202B0E4FBFAC9FC8028E830E406E4C9B1
:1000A600FBE4CAFCE830E305E4C9CACBFCE8540724
:1000B6006010F8C3E913F9EA13FAEB13FBEC13FC2F
:1000C600D8F130F52FC3E49CFCEF9BFFEE9AFEEDD2
:1000D60099FDD0E0FBEF4E4D4C701222DB0302027D
:1000E600D5EC2CFCEF33FFEE33FEED33FDED30E7C0
:1000F600EB0202B0EF2BFFEE3AFEED39FDD0E0FB4E
:1001060050130BBB00030202D8ED13FDEE13FEEFF6
:0801160013FFEC13FC0202B020
:10011E00EC4D6011E8497017ED33EC3304600DE4DB
:10012E00FCFFFEFD22E933E8330470F80202CE1222
:10013E00029958046009E4CC248150062850090223
:10014E0002D82840030202D5C0E0EB4A7044B980C1
:10015E0006D0E0FB0202C4EF4E701CBD8008EBFF20
:10016E00EAFEE9FD80EBE98DF0A4FEE5F002020760
:10017E00E9CDF9EAFEEBFFEF89F0A4FCE5F0CE89BC
:10018E00F0A42EFFE435F0CD89F0A42DFEE435F079
:10019E008067EF4E7005BD80D780C3EF8BF0A4ACA7
:1001AE00F0EE8BF0A42CFCE435F0F8EF8AF0A42CE2
:1001BE00E5F038FCE433CB8DF0A42CFCE5F03BF8F5
:1001CE00EE8AF0A42CFCE5F038F8E433CF89F0A4E5
:1001DE002CFCE5F038CF3400CE89F0A42FFFE5F0EB
:1001EE003EFEE433C98DF0A42EFEE5F039CD8AF043
:1001FE00A42FFFE5F03EFEE43DFD33D0E0FB5007BB
:10020E000BBB000F0202D8EC2CFCEF33FFEE33FEDB
:06021E00ED33FD0202B009
:1002240075F020800E75F010800575F0087D007E55
:10023400007F003392D530D503120338EC334010DD
:10024400EF33FFEE33FEED33FDEC33FCD5F0ED225E
:0E025400E5F0247EA2D513CC92E7CDCEFF229A
:10026200EDD2E7CD33EC3392D524814006E4FFFE94
:10027200FDFC22FCE4CFCECDCC24E0501174FF80F3
:10028200EDC3CC13CCCD13CDCE13CECF13CF047090
:07029200F030D5DE02033855
:10029900E9D2E7C933E833F892D5EDD2E7CD33ECAB
:0702A90033FC5002B2D52224
:1002B000EC30E7100FBF000C0EBE00080DBD0004AF
:1002C0000BEB6014A2D5EB13FCED92E7FD2274FF5B
:1002D000FCFDFEFF22E480F8A2D574FF13FC7D80B4
:0302E000E480EFC8
:030000000206A64F
:0C06A600787FE4F6D8FD75814A0206ED6D
:1002E300BC000BBE0029EF8DF084FFADF022E4CCFF
:1002F300F875F008EF2FFFEE33FEEC33FCEE9DECC8
:10030300984005FCEE9DFE0FD5F0E9E4CEFD22ED0D
:10031300F8F5F0EE8420D21CFEADF075F008EF2F57
:10032300FFED33FD4007985006D5F0F222C398FD48
:050333000FD5F0EA22E5
:0E033800C3E49FFFE49EFEE49DFDE49CFC22D6
:10034600EB9FF5F0EA9E42F0E99D42F0EC6480C82E
:0603560064809845F022CE
:10035C00D083D082F8E4937012740193700DA3A330
:10036C0093F8740193F5828883E473740293686044
:06037C00EFA3A3A380DF44
:1006B200020382E493A3F8E493A34003F68001F2D9
:1006C20008DFF48029E493A3F85407240CC8C33349
:1006D200C4540F4420C8834004F456800146F6DF18
:1006E200E4800B0102040810204080900934E47E6B
:1006F200019360BCA3FF543F30E509541FFEE4930D
:10070200A360010ECF54C025E060A840B8E493A3D3
:10071200FAE493A3F8E493A3C8C582C8CAC583CAFE
:10072200F0A3C8C582C8CAC583CADFE9DEE780BEB6
:010965000091
:00000001FF
