:1009D2003F065B4F666D7D077F6F777C395E79716D
:1009E2000040761E7038375C733E783D6750376E34
:1009F200BF86DBCFE6EDFD87FFEF46414141535312
:070A020053535353414141DE
:100A3D000242000008451010101010101010C102D5
:100A4D00013F0001440001220001230001240001A7
:100A5D002500012637012700012800012900012A60
:010A6D003751
:1006AE00E4F50F7510FFF511F512FDFF120B0D7F1E
:1006BE00FF120C59120C443004FDC204120998AEFC
:1006CE0040AF417C007D641202E38F4AAE40AF41E1
:1006DE007C007D641202E37E007F0ACFCDCFCECCAC
:1006EE00CE1202E38F4BAE40AF417C007D0A120268
:1006FE00E38D4C120887C3E50E94E8E50D94034094
:10070E001CAE0DAF0E7C277D101202E37E037FE838
:10071E00CFCDCFCECCCE1202E38F458003754510E0
:10072E00AE0DAF0E7C037DE81202E37E007F64CF38
:10073E00CDCFCECCCE1202E3EF2420F546AE0DAFD8
:10074E000E7C007D641202E37E007F0ACFCDCFCEF9
:10075E00CCCE1202E38F47AE0DAF0E7C007D0A1297
:07076E0002E38D480206C5FD
:100B0D00E4FEEF60027E40ED6003430610C2AF8E3F
:100B1D0080E5A0541F44A0F5A08E8053A01FD2AF36
:010B2D0022A5
:100BE000E4FEEF60027E40ED6003430610C2AF906A
:090BF000A000EEF053A01FD2AFEB
:010BF90022D9
:100B2E00EF1FAA0670011E4A60147C027D80D3ED71
:0E0B3E009400EC940040E9ED1D70F31C80F073
:010B4C002286
:100C5900C2AF8F80E5A0541F4480F5A08F8053A0B8
:040C69001FD2AF22C5
:0D0CB300C2AF908000EFF053A01FD2AF221F
:100C4400538EBF53890F758B18758DFCC28FD28E4E
:050C5400D2ABD2AF227B
:03001B000205DCFF
:1005DC00C0E0C0F0C083C082C0D075D000C000C0E5
:1005EC0001C002C003C004C005C006C0070543E536
:1005FC004370020542AE42FFE4FCFD7B607AEAF9EF
:10060C00F8C31203467004F542F543AE42AF437C87
:10061C00007D0A1202E3ED4C7002D200AE42AF43F1
:10062C007C007D321202E3ED4C7002D201AE42AF7F
:10063C00437C007D641202E3ED4C7002D203AE42A7
:10064C00AF437C007DC81202E3ED4C7002D204AEC5
:10065C0042AF437C007DFA1202E3ED4C7002D205EE
:10066C00AE42AF437C037DE81202E3ED4C7002D244
:10067C0006120900D3E50E944CE50D941D400512AD
:10068C00088780F0120003D007D006D005D004D024
:10069C0003D002D001D000D0D0D082D083D0F0D003
:0206AC00E0323A
:100900007580FFE5A0541F44E0F5A053A01FE4F557
:1009100080E5A0541F44C0F5A0AF227401A80708C9
:100920008002C333D8FCF58053A01F7580FFE5A07B
:10093000541F44E0F5A074452522F8E69009D293AF
:10094000F4F58053A01F0522E522C394084003E478
:02095000F5228E
:010952002282
:0D0CC000C2AF908000E4F053A01FD2AF221D
:1008010043B00FE5B0540FFF640F6066E523C39456
:10081100C850020523E523C3940550037FFF22E559
:100821002364057037752401752637EF24F9601AA2
:1008310024FC601124FE60081470147525078019CA
:100841007525068014752505800F752504800A75A8
:1008510025FFE4F524F526F523AF2522E526600CD6
:10086100D5260C752637E525240AFF227526377F04
:10087100FF22E4F523E524B40109E4F524E5252468
:0508810014FF227FFFBF
:01088600224F
:1004BE0075B00FC2C2C2C4E5B0540FFF640F700313
:1004CE000205C8E527C394C850020527E527C39443
:1004DE000550037FFF22E527640560030205B27510
:1004EE002801752A37E5B0540FFF75B0F0D2C2D28D
:1004FE00C4E5B054F0FE30C20543064080035306F7
:10050E00BF30C405430680800353067FEE4207EFDB
:10051E0012035C055577055A7B055F7D05647E05E4
:10052E0069B7056EBB0573BD0578BE057DD705821F
:10053E00DB0587DD058CDE0591E70596EB059BED6A
:10054E0005A0EE000005A5752904805575290580C6
:10055E0050752906804B75290780467529088041FC
:10056E00752909803C75290A803775290B803275EB
:10057E00290C802D75290D802875290E802375294B
:10058E000F801E7529108019752911801475291276
:10059E00800F752913800A7529FFE4F528F52AF5D1
:1005AE0027AF2922E52A600CD52A0C752A37E529B2
:1005BE002414FF22752A377FFF22E4F527E528B49D
:0D05CE000109E4F528E5292428FF227FFF1C
:0105DB0022FD
:10000300759850438E01438E0475D73C75D6F643DD
:070013008E10D2ACD2AF2227
:030023000209537C
:0B095300C0E0C0D075D000C000C0079D
:10095E0030982EC298742B253FF8A699742B253FFC
:10096E00F8E6F599053FE53FD3941340117F1478CF
:10097E002BE4F608DFFC753F0075440080037544D8
:01098E000563
:09098F00D007D000D0D0D0E03236
:10038200E4FFC29000000000000000000000000036
:10039200000000000000000000000000000000005B
:1003A200000000000000000000000000000000004B
:1003B200000000000000000000000000000000003B
:1003C200000000000000000000000000000000002B
:1003D200000000000000000000000000000000001B
:1003E200000000000000000000000000000000000B
:1003F20000000000000000000000000000000000FB
:1004020000000000000000000000000000000000EA
:1004120000000000000000000000D2900000000078
:1004220000000000000000000000000000000000CA
:1004320000000000000000000000000000000000BA
:1004420000000000000000000000000000000000AA
:10045200000000000000000000000000000000009A
:10046200000000000000000000000000000000008A
:10047200000000000000000000000000000000007A
:10048200000000000000000000000000000000006A
:10049200000000000000000000000000000000005A
:1004A200000000000000000000000000000000004A
:0B04B20000000FEF64086003020384E9
:0104BD00221C
:100C9400538E7F5389F0E4F58AF58CC28DD28C2271
:10099800120382120C94309107E58CC3945040F6F0
:1009A800C28CAF8CEFFEAD8A7C00E42DFFEC3EFEDE
:1009B800AD07FCE41202297B967A43798B783C12C6
:0909C800011E1202628E408F41F3
:0109D1002203
:100C8100E4FEC297EF1392A3EFC313FFD2970EBEF8
:020C910008F069
:010C9300223E
:100C6D00C29300C29700D29300120C81AF05120CF3
:040C7D0081C293227B
:100A0900E4FDC29300C29700D29300120C81E4FF67
:100A1900C297EDC313FD30A303430580D2970FBFDF
:100A290008EEC29300C29700D29700C2A300D2A3D6
:030A390000AF0506
:010A3C002297
:040CCD00D2A07F052D
:080CD10000AE071FEE70F922CE
:0F0CA400D2A1120CCDC2A17F05120CD1C2A02289
:0C0CD900C2A1120CCDD2A17F05020CD1EB
:070B6C00120BA8AD07D2092E
:100B7300C2A0A20992A17F05120CD1120CCDC2A072
:070B8300D2A17F05020CD195
:0A0BC500AB07120CA47F90120A6F18
:100BCF00120CCDA2A1920AC2A07F05120CD1A20ACB
:010BDF0022F3
:020A6F00AD07D1
:100A7100E4FCC2A07F05120CD1ED30E704D2A180C5
:100A810002C2A17F05120CD1D2A0ED25E0FD7F05A8
:090A9100120CD10CBC08DBC2A060
:010A9A002239
:100BA800E4FC120CCDED25E0FD30A103430501C2A4
:0C0BB800A07F05120CD10CBC08E8AF05B2
:010BC400220E
:100AEB00AB05AA07120CA47FA0120A6F120BCFAF93
:100AFB0002120A6F120BCFAF03120A6F120BCF0247
:020B0B000CD903
:020A9B00AB07A7
:100A9D00120CA47FA0120A6F120BCFAF03120A6FB4
:100AAD00120BCF120CA47FA1120A6F120BCF120BD7
:060ABD006C120CD9AF051C
:010AC3002210
:100C2E00120BC57F40120A6F120BCFAF03120A6F61
:060C3E00120BCF020CD9DD
:100B4D00120BC5AF03120A6F120BCF120CA47F91BB
:0E0B5D00120A6F120BCF120B6C120CD9AF05DF
:010B6B002267
:040BFA007F057E00F5
:100BFE00EF1FAA0670011E4A600BE4FDEDC3940CB4
:050C0E0050EE0D80F71F
:010C130022BE
:020B8A00A907B9
:100B8C00E4FBC294E9139294120BFAD294E9C313C6
:0C0B9C00F90BBB08ED7F057E00020BFE8C
:100C1400E4FBC294ECC313FCD294309403430480E9
:090C2400120BFA0BBB08EBAF0444
:010C2D0022A4
:100AC400C208D2947F0C7E00120BFEC2947F507E2B
:100AD40000120BFED2947F0A7E00120BFEA29492A7
:060AE40008120BFAA20843
:010AEA0022E9
:10088700120AC47FCC120B8A7F44120B8A7F147E14
:1008970000120BFE120AC47FCC120B8A7FBE120B0A
:1008A7008A120C14A907120C14AD07ED7F00FEE99C
:1008B7002FFFE43EFEED30E712750C01EFF4FFEE7B
:1008C700F4FEEF2401FFE43EFE8003E4F50CAD07E0
:1008D700AC06E4120229E4FBFA79C8784012011E3B
:1008E700E4FBFAF9783F12002D8F0B8E0A8D098CE5
:0808F700081202628E0D8F0E43
:0108FF0022D6
:100026000202CEE86480F8E933E83360110460F038
:10003600ED33EC337009E8FCE9FDEAFEEBFF220440
:1000460060DED3EB9FEA9EE99DE8C2E78CF0C2F73B
:1000560095F0400CE8CCF8E9CDF9EACEFAEBCFFB07
:1000660012029985D0F05804700320D5B3E80470C5
:10007600075002B2D50202D892D5EC0460F7E4CC60
:10008600C0E0C398F8603B94186008400DD0E0FBD0
:100096000202B0E4FBFAC9FC8028E830E406E4C9B1
:1000A600FBE4CAFCE830E305E4C9CACBFCE8540724
:1000B6006010F8C3E913F9EA13FAEB13FBEC13FC2F
:1000C600D8F130F52FC3E49CFCEF9BFFEE9AFEEDD2
:1000D60099FDD0E0FBEF4E4D4C701222DB0302027D
:1000E600D5EC2CFCEF33FFEE33FEED33FDED30E7C0
:1000F600EB0202B0EF2BFFEE3AFEED39FDD0E0FB4E
:1001060050130BBB00030202D8ED13FDEE13FEEFF6
:0801160013FFEC13FC0202B020
:10011E00EC4D6011E8497017ED33EC3304600DE4DB
:10012E00FCFFFEFD22E933E8330470F80202CE1222
:10013E00029958046009E4CC248150062850090223
:10014E0002D82840030202D5C0E0EB4A7044B980C1
:10015E0006D0E0FB0202C4EF4E701CBD8008EBFF20
:10016E00EAFEE9FD80EBE98DF0A4FEE5F002020760
:10017E00E9CDF9EAFEEBFFEF89F0A4FCE5F0CE89BC
:10018E00F0A42EFFE435F0CD89F0A42DFEE435F079
:10019E008067EF4E7005BD80D780C3EF8BF0A4ACA7
:1001AE00F0EE8BF0A42CFCE435F0F8EF8AF0A42CE2
:1001BE00E5F038FCE433CB8DF0A42CFCE5F03BF8F5
:1001CE00EE8AF0A42CFCE5F038F8E433CF89F0A4E5
:1001DE002CFCE5F038CF3400CE89F0A42FFFE5F0EB
:1001EE003EFEE433C98DF0A42EFEE5F039CD8AF043
:1001FE00A42FFFE5F03EFEE43DFD33D0E0FB5007BB
:10020E000BBB000F0202D8EC2CFCEF33FFEE33FEDB
:06021E00ED33FD0202B009
:1002240075F020800E75F010800575F0087D007E55
:10023400007F003392D530D503120338EC334010DD
:10024400EF33FFEE33FEED33FDEC33FCD5F0ED225E
:0E025400E5F0247EA2D513CC92E7CDCEFF229A
:10026200EDD2E7CD33EC3392D524814006E4FFFE94
:10027200FDFC22FCE4CFCECDCC24E0501174FF80F3
:10028200EDC3CC13CCCD13CDCE13CECF13CF047090
:07029200F030D5DE02033855
:10029900E9D2E7C933E833F892D5EDD2E7CD33ECAB
:0702A90033FC5002B2D52224
:1002B000EC30E7100FBF000C0EBE00080DBD0004AF
:1002C0000BEB6014A2D5EB13FCED92E7FD2274FF5B
:1002D000FCFDFEFF22E480F8A2D574FF13FC7D80B4
:0302E000E480EFC8
:030000000207757F
:0C077500787FE4F6D8FD75814C0207BCCB
:1002E300BC000BBE0029EF8DF084FFADF022E4CCFF
:1002F300F875F008EF2FFFEE33FEEC33FCEE9DECC8
:10030300984005FCEE9DFE0FD5F0E9E4CEFD22ED0D
:10031300F8F5F0EE8420D21CFEADF075F008EF2F57
:10032300FFED33FD4007985006D5F0F222C398FD48
:050333000FD5F0EA22E5
:0E033800C3E49FFFE49EFEE49DFDE49CFC22D6
:10034600EB9FF5F0EA9E42F0E99D42F0EC6480C82E
:0603560064809845F022CE
:10035C00D083D082F8E4937012740193700DA3A330
:10036C0093F8740193F5828883E473740293686044
:06037C00EFA3A3A380DF44
:100781000206AEE493A3F8E493A34003F68001F2DA
:1007910008DFF48029E493A3F85407240CC8C33379
:1007A100C4540F4420C8834004F456800146F6DF48
:1007B100E4800B0102040810204080900A3DE47E91
:1007C100019360BCA3FF543F30E509541FFEE4933D
:1007D100A360010ECF54C025E060A840B8E493A304
:1007E100FAE493A3F8E493A3C8C582C8CAC583CA2F
:1007F100F0A3C8C582C8CAC583CADFE9DEE780BEE7
:010A6E000087
:00000001FF
