:1008C0003F065B4F666D7D077F6F777C395E797180
:1008D0000040761E7038375C733E783D6750376E47
:0B08E000BF86DBCFE6EDFD87FFEF4693
:1008EB00022D0000083D10101010101010100122E6
:1008FB0000012300012400012500012637012700F8
:09090B00012800012900012A372E
:10037A00E4F50F7510FFF511F512FDFF1209877FDD
:07038A00FF120ABD120AA8D0
:100391003003FDC203E4F513120794E51325E024AD
:1003A10031F8A60D08A60E7F057E001209A8C3E547
:1003B1000E9432E50D940040DF0513E513940540DA
:1003C100D7E4F513E4F52FF53074FFF52BF52CE5A3
:1003D1001325E02431F8E6FE08E6FFD39530EE95CB
:1003E1002F40048E2F8F30C3EF952CEE952B5004A8
:1003F1008E2B8F2CEF253EF53EEE353DF53D051359
:10040100E513B405BFC3E53E9530FFE53D952FFEED
:10041100C3EF952CF53EEE952BF53DFEAF3E7C00EE
:100421007D031202DB8E458F46C3E546944CE545BC
:10043100941D4003020391C3E54694E8E545940306
:1004410040187C277D101202DB7E037FE8CFCDCFE1
:10045100CECCCE1202DB8F3D8003753D10AE45AF91
:10046100467C037DE81202DB7E007F64CFCDCFCED8
:10047100CCCE1202DBEF2420F53EAE45AF467C0028
:100481007D641202DB7E007F0ACFCDCFCECCCE12AF
:1004910002DB8F3FAE45AF467C007D0A1202DB8D49
:0104A100401A
:0304A200020391C1
:10098700E4FEEF60027E40ED6003430610C2AF8EC7
:1009970080E5A0541F44A0F5A08E8053A01FD2AFBE
:0109A700222D
:100A5A00E4FEEF60027E40ED6003430610C2AF90F1
:090A6A00A000EEF053A01FD2AF72
:010A73002260
:1009A800EF1FAA0670011E4A60147C027D80D3EDF9
:0E09B8009400EC940040E9ED1D70F31C80F0FB
:0109C600220E
:100ABD00C2AF8F80E5A0541F4480F5A08F8053A056
:040ACD001FD2AF2263
:0D0B0700C2AF908000EFF053A01FD2AF22CC
:100AA800538EBF53890F758B18758DFCC28FD28EEC
:050AB800D2ABD2AF2219
:03001B000205C318
:1005C300C0E0C0F0C083C082C0D075D000C000C0FE
:1005D30001C002C003C004C005C006C007052EE564
:1005E3002E7002052DAE2DFFE4FCFD7B607AEAF947
:1005F300F8C312033E7004F52DF52EAE2DAF2E7CFD
:10060300007D0A1202DBED4C7002D200AE2DAF2E3C
:100613007C007D321202DBED4C7002D201AE2DAFB5
:100623002E7C007D641202DBED4C7002D202AE2DF3
:10063300AF2E7C007DC81202DBED4C7002D203AEFC
:100643002DAF2E7C007DFA1202DBED4C7002D2043A
:10065300AE2DAF2E7C037DE81202DBED4C7002D28F
:100663000512080DD007D006D005D004D003D00260
:0F067300D001D000D0D0D082D083D0F0D0E032F0
:10080D007580FFE5A0541F44E0F5A053A01FE4F54B
:10081D0080E5A0541F44C0F5A0AF227401A80708BD
:10082D008002C333D8FCF58053A01F7580FFE5A06F
:10083D00541F44E0F5A0743D2522F8E69008C093BE
:10084D00F4F58053A01F0522E522C394084003E46C
:02085D00F52282
:01085F002276
:0D0B1400C2AF908000E4F053A01FD2AF22CA
:10070E0043B00FE5B0540FFF640F6066E523C3944A
:10071E00C850020523E523C3940550037FFF22E54D
:10072E002364057037752401752637EF24F9601A96
:10073E0024FC601124FE60081470147525078019BE
:10074E007525068014752505800F752504800A759C
:10075E0025FFE4F524F526F523AF2522E526600CCA
:10076E00D5260C752637E525240AFF227526377FF8
:10077E00FF22E4F523E524B40109E4F524E525245C
:05078E0014FF227FFFB3
:010793002243
:1004A50075B00FC2C2C2C4E5B0540FFF640F70032C
:1004B5000205AFE527C394C850020527E527C39475
:1004C5000550037FFF22E527640560030205997542
:1004D5002801752A37E5B0540FFF75B0F0D2C2D2A6
:1004E500C4E5B054F0FE30C2054306408003530610
:1004F500BF30C405430680800353067FEE4207EFF5
:10050500120354053C7705417B05467D054B7E0569
:1005150050B70555BB055ABD055FBE0564D70569CE
:10052500DB056EDD0573DE0578E7057DEB0582ED00
:100535000587EE0000058C75290480557529058011
:1005450050752906804B7529078046752908804115
:10055500752909803C75290A803775290B80327504
:10056500290C802D75290D802875290E8023752964
:100575000F801E752910801975291180147529128F
:10058500800F752913800A7529FFE4F528F52AF5EA
:1005950027AF2922E52A600CD52A0C752A37E529CB
:1005A5002414FF22752A377FFF22E4F527E528B4B6
:0D05B5000109E4F528E5292428FF227FFF35
:0105C2002216
:100AE500E4FEC297EF1392A3EFC313FFD2970EBE96
:020AF50008F007
:010AF70022DC
:100AD100C29300C29700D29300120AE5AF05120A31
:040AE100E5C29322B5
:10086000E4FDC29300C29700D29300120AE5E4FFB0
:10087000C297EDC313FD30A303430580D2970FBF8A
:1008800008EEC29300C29700D29700C2A300D2A381
:0308900000AF05B1
:010893002242
:040B2100D2A07F05DA
:080B250000AE071FEE70F9227B
:0F0AF800D2A1120B21C2A17F05120B25C2A02291
:0C0B2D00C2A1120B21D2A17F05020B25F2
:0709E600120A22AD07D20640
:1009ED00C2A0A20692A17F05120B25120B21C2A057
:0709FD00D2A17F05020B25CA
:0A0A3F00AB07120AF87F901208942A
:100A4900120B21A2A19207C2A07F05120B25A207B2
:010A5900227A
:02089400AD07AE
:10089600E4FCC2A07F05120B25ED30E704D2A1804F
:1008A60002C2A17F05120B25D2A0ED25E0FD7F0532
:0908B600120B250CBC08DBC2A0EA
:0108BF002216
:100A2200E4FC120B21ED25E0FD30A103430501C2D8
:0C0A3200A07F05120B250CBC08E8AF05E6
:010A3E002295
:10096500AB05AA07120AF87FA0120894120A49AF2C
:1009750002120894120A49AF03120894120A490296
:020985000B2D38
:02091500AB072E
:10091700120AF87FA0120894120A49AF031208942A
:10092700120A49120AF87FA1120894120A491209F9
:06093700E6120B2DAF05D6
:01093D002297
:10000300120A3F7F40120894120A49AF0312089460
:06001300120A49020B2D48
:1009C700120A3FAF03120894120A49120AF87F91DC
:0E09D700120894120A491209E6120B2DAF0500
:0109E50022EF
:040A74007F057E007C
:100A7800EF1FAA0670011E4A600BE4FDEDC3940C3B
:050A880050EE0D80F7A7
:010A8D002246
:020A0400A90740
:100A0600E4FBC294E9139294120A74D294E9C313D4
:0C0A1600F90BBB08ED7F057E00020A789A
:100A8E00E4FBC294ECC313FCD29430940343048071
:090A9E00120A740BBB08EBAF0453
:010AA700222C
:10093E00C208D2947F0C7E00120A78C2947F507E39
:10094E0000120A78D2947F0A7E00120A78A294923C
:06095E0008120A74A20851
:010964002270
:1007940012093E7FCC120A047F44120A047F147E9D
:1007A40000120A7812093E7FCC120A047FBE120A94
:1007B40004120A8EA907120A8EAD07ED7F00FEE926
:1007C4002FFFE43EFEED30E712750C01EFF4FFEE6F
:1007D400F4FEEF2401FFE43EFE8003E4F50CAD07D4
:1007E400AC06E4120221E4FBFA79C878401201163F
:1007F400E4FBFAF9783F1200258F0B8E0A8D098CE1
:080804000812025A8E0D8F0E3E
:01080C0022C9
:10001E000202C6E86480F8E933E83360110460F048
:10002E00ED33EC337009E8FCE9FDEAFEEBFF220448
:10003E0060DED3EB9FEA9EE99DE8C2E78CF0C2F743
:10004E0095F0400CE8CCF8E9CDF9EACEFAEBCFFB0F
:10005E0012029185D0F05804700320D5B3E80470D5
:10006E00075002B2D50202D092D5EC0460F7E4CC70
:10007E00C0E0C398F8603B94186008400DD0E0FBD8
:10008E000202A8E4FBFAC9FC8028E830E406E4C9C1
:10009E00FBE4CAFCE830E305E4C9CACBFCE854072C
:1000AE006010F8C3E913F9EA13FAEB13FBEC13FC37
:1000BE00D8F130F52FC3E49CFCEF9BFFEE9AFEEDDA
:1000CE0099FDD0E0FBEF4E4D4C701222DB03020285
:1000DE00CDEC2CFCEF33FFEE33FEED33FDED30E7D0
:1000EE00EB0202A8EF2BFFEE3AFEED39FDD0E0FB5E
:1000FE0050130BBB00030202D0ED13FDEE13FEEF07
:08010E0013FFEC13FC0202A830
:10011600EC4D6011E8497017ED33EC3304600DE4E3
:10012600FCFFFEFD22E933E8330470F80202C61232
:10013600029158046009E4CC248150062850090233
:1001460002D02840030202CDC0E0EB4A7044B980D9
:1001560006D0E0FB0202BCEF4E701CBD8008EBFF30
:10016600EAFEE9FD80EBE98DF0A4FEE5F00201FF71
:10017600E9CDF9EAFEEBFFEF89F0A4FCE5F0CE89C4
:10018600F0A42EFFE435F0CD89F0A42DFEE435F081
:100196008067EF4E7005BD80D780C3EF8BF0A4ACAF
:1001A600F0EE8BF0A42CFCE435F0F8EF8AF0A42CEA
:1001B600E5F038FCE433CB8DF0A42CFCE5F03BF8FD
:1001C600EE8AF0A42CFCE5F038F8E433CF89F0A4ED
:1001D6002CFCE5F038CF3400CE89F0A42FFFE5F0F3
:1001E6003EFEE433C98DF0A42EFEE5F039CD8AF04B
:1001F600A42FFFE5F03EFEE43DFD33D0E0FB5007C3
:100206000BBB000F0202D0EC2CFCEF33FFEE33FEEB
:06021600ED33FD0202A819
:10021C0075F020800E75F010800575F0087D007E5D
:10022C00007F003392D530D503120330EC334010ED
:10023C00EF33FFEE33FEED33FDEC33FCD5F0ED2266
:0E024C00E5F0247EA2D513CC92E7CDCEFF22A2
:10025A00EDD2E7CD33EC3392D524814006E4FFFE9C
:10026A00FDFC22FCE4CFCECDCC24E0501174FF80FB
:10027A00EDC3CC13CCCD13CDCE13CECF13CF047098
:07028A00F030D5DE02033065
:10029100E9D2E7C933E833F892D5EDD2E7CD33ECB3
:0702A10033FC5002B2D5222C
:1002A800EC30E7100FBF000C0EBE00080DBD0004B7
:1002B8000BEB6014A2D5EB13FCED92E7FD2274FF63
:1002C800FCFDFEFF22E480F8A2D574FF13FC7D80BC
:0302D800E480EFD0
:0300000002068273
:0C068200787FE4F6D8FD7581460206C9B9
:1002DB00BC000BBE0029EF8DF084FFADF022E4CC07
:1002EB00F875F008EF2FFFEE33FEEC33FCEE9DECD0
:1002FB00984005FCEE9DFE0FD5F0E9E4CEFD22ED16
:10030B00F8F5F0EE8420D21CFEADF075F008EF2F5F
:10031B00FFED33FD4007985006D5F0F222C398FD50
:05032B000FD5F0EA22ED
:0E033000C3E49FFFE49EFEE49DFDE49CFC22DE
:10033E00EB9FF5F0EA9E42F0E99D42F0EC6480C836
:06034E0064809845F022D6
:10035400D083D082F8E4937012740193700DA3A338
:1003640093F8740193F5828883E47374029368604C
:06037400EFA3A3A380DF4C
:10068E0002037AE493A3F8E493A34003F68001F205
:10069E0008DFF48029E493A3F85407240CC8C3336D
:1006AE00C4540F4420C8834004F456800146F6DF3C
:1006BE00E4800B01020408102040809008EBE47ED9
:1006CE00019360BCA3FF543F30E509541FFEE49331
:1006DE00A360010ECF54C025E060A840B8E493A3F8
:1006EE00FAE493A3F8E493A3C8C582C8CAC583CA23
:1006FE00F0A3C8C582C8CAC583CADFE9DEE780BEDB
:0109140000E2
:00000001FF
